:03000000020E8C61
:0C0E8C00787FE4F6D8FD75816A020ED371
:1012A70052657475726E004E6F697365733A252EB9
:0712B700316664420D0A00DC
:0B10B600C109C10A026000410157009F
:1012FA001212D31212E71212BED2AF120D3880FBAD
:100D3800120F18300963C2097F431211BB755E0098
:100D48008F5FAE5E7C007D6412057D7D3312058F5A
:100D5800AC06AD07E41201D18F5D8E5C8D5B8C5AB9
:100D6800E4FFFE7D107C41AB5DAA5CA95BA85A122A
:100D78000026E4FBFA79A0784012012F8F5D8E5C83
:100D88008D5B8C5A12020A8E588F59121149200A0B
:100D980005120DF58003120F97200A5078087C0081
:100DA8007D007BFF7A1279A71207DCEF3395E04FBD
:100DB800703A7525FF7526127527AEFBFA792078EB
:100DC80041AF5DAE5CAD5BAC5A12012F8F2B8E2A02
:100DD8008D298C287B017A0079001208557B017ACD
:0D0DE800007900121232750831E4F51C226A
:10101300BF3609200A04D20A8002C20A300A43BF3B
:10102300421F74052561F561E43560F560C3E56130
:10103300945AE56064809480402875600075615A15
:1010430022BF411E74FB2561F56174FF3560F560B5
:10105300D3E5619400E560648094805005E4F56015
:03106300F5612212
:03000B000210667A
:10106600C0E0C0F0C083C082C0D075D000C000C050
:0D10760001C002C003C004C005C006C007D1
:10108300121105120C680557C3E5579464748094D4
:08109300804005755700D209E9
:10109B00D007D006D005D004D003D002D001D000A9
:0B10AB00D0D0D082D083D0F0D0E03253
:0800030031323341343536423D
:1010C100084F0101010101010101083E0101010176
:0E10D100010101010847FFFFFFFFFFFFFFFFC6
:100F1800E4F522C3E5229402748094805070E4F5CD
:100F280023C3E523940474809480505EE52225E071
:100F380025E0244F2523F8E6FFE52225E025E024D7
:100F48003E2523F8E6FE6F603DEE6020E52225E0B1
:100F580025E02403F582E43400F583E5822523F5B2
:100F680082E43583F583E493FF121013E52225E02C
:100F780025E0244F2523F8E6FFE52225E025E02497
:0E0F88003E2523F8A6070523809705228085C5
:010F96002238
:100C6800E54625E025E02447F8E625E0FFA2C4E4B0
:100C7800334FFFE54625E025E02447F8A607E5467B
:100C880025E025E02448F8E625E0FFA2C2E4334F3A
:100C9800FFE54625E025E02448F8A607E54625E0D7
:100CA80025E02449F8E625E0FFA2B5E4334FFFE547
:100CB8004625E025E02449F8A607E54625E025E095
:100CC800244AF8E625E0FFA2B4E4334FFFE54625C1
:100CD800E025E0244AF8A607E4FFEFC394047480F3
:100CE80094805035E54625E025E024472FF8E65462
:100CF8000FFD7C00700EE54625E025E0244F2FF817
:100D0800E4F68012ED640F4C700CE54625E025E012
:100D1800244F2FF876010F80C10546534601E5465A
:0F0D2800146008047009D2B3C2B222D2B2C2B3AF
:010D37002299
:0A133200C0F9A4B0999282F88090EF
:0C10DF00C10B0863FFFFFFFFFFFFFFFFD6
:101105007F071213197580FFE4FF121319E4F580A8
:101115007F06121319AF62A8077401088002C33352
:10112500D8FCF580E4FF1213197580FF7F071213B1
:101135001974632562F8E6F580E4FF121319056258
:03114500536207EB
:011148002284
:100DF5007563C1901333E493F564C3E5599464E5D1
:100E0500589400402DD3E5599484E5589403502215
:100E1500AE58AF597C007D6412058F7C007D0A12A7
:100E2500058F74322DF58274133CF583E493F568D0
:100E35008019C3E559940AE55894004049D3E5590A
:100E45009463E5589400503E7568FFAE58AF597CE1
:100E5500007D0A12058F7C007D0A12058F74322DE4
:100E6500F58274133CF583E493547FF569AE58AF6E
:100E7500597C007D0A12058F74322DF58274133C5E
:070E8500F583E493F56A22F6
:100F97007563C1901334E493F5647568FFC3E56125
:100FA700940AE56064809480402FD3E5619463E5FB
:100FB70060648094805022AE60AF617C007D0A122D
:100FC70005E47C007D0A1205E474322DF582741362
:100FD7003CF583E493F5698019C3E56064809480E8
:100FE7004029D3E5619409E56064809480501C75BD
:100FF70069FFAE60AF617C007D0A1205E474322D93
:0C100700F58274133CF583E493F56A2233
:101149007580FF7F04121319200A04C2808002D21D
:1011590080300A04C2818002D281AE60AF617C0016
:101169007D0A12057DD3E5599FE5589E4008A20BDB
:0D1179009282B20B8002D282E4FF021319B1
:04127500D2A07F057F
:10127900000000000000000000000000000000AEB7
:06128900071FEE70EB22CE
:0F130A00D2A1121275C2A17F05121279C2A022C0
:0C132600C2A1121275D2A17F050212793B
:02118600AD07B3
:10118800E4FCECC39408748094805024C2A07F05CA
:10119800121279ED30E704D2A18002C2A17F0512B4
:1011A8001279D2A0ED25E0FD7F051212790C80D2CC
:0211B800C2A0D3
:0111BA002212
:10120C00E4FCECC39408748094805017121275EDB2
:10121C0025E0FD30A103430501C2A07F0512127920
:05122C000C80DFAF059E
:01123100229A
:03000E0012118646
:10001100121275A2A1E433FDC2A07F05121279AFBD
:0100210005D9
:0100220022BB
:10128F00C2A0EF24FF92A17F05121279121275C22C
:08129F00A0D2A17F0502127923
:0211BB00AB0780
:1011BD0012130A7F9012000EAF0312000E12130AC3
:1011CD007F9112118612001112120CAD077F0112C0
:0711DD00128F121326AF056B
:0111E40022E8
:1010EB0014080000000000000000000000000000D9
:0910FB00000000000000011C00CF
:0D13190053A01FEF5407C43354E042A0223C
:1012D3007F041213197580FF7F05121319E4F5803B
:0412E300FF021319DA
:1012E700438E805389F0758A20758CD1C28DD28C3C
:0312F700D2A92257
:1012BE00759850438E01438E0475D7C775D6FE437D
:0512CE008E10D2AC22DD
:08133C008F993099FDC299223E
:101232008B228A238924AB22AA23A92412052560A2
:10124200130524E5247002052314F9120525FF1263
:05125200133C80E222C4
:030023000212576F
:10125700C0E0C0D075D000C00030980B7408251CC2
:0E126700F8A699051CC298D000D0D0D0E03275
:10002600EC4D6011E8497017ED33EC3304600DE4D4
:10003600FCFFFEFD22E933E8330470F80202761273
:10004600024158046009E4CC248150062850090274
:10005600028028400302027DC0E0EB4A7044B9806A
:1000660006D0E0FB02026CEF4E701CBD8008EBFF71
:10007600EAFEE9FD80EBE98DF0A4FEE5F002010F52
:10008600E9CDF9EAFEEBFFEF89F0A4FCE5F0CE89B5
:10009600F0A42EFFE435F0CD89F0A42DFEE435F072
:1000A6008067EF4E7005BD80D780C3EF8BF0A4ACA0
:1000B600F0EE8BF0A42CFCE435F0F8EF8AF0A42CDB
:1000C600E5F038FCE433CB8DF0A42CFCE5F03BF8EE
:1000D600EE8AF0A42CFCE5F038F8E433CF89F0A4DE
:1000E6002CFCE5F038CF3400CE89F0A42FFFE5F0E4
:1000F6003EFEE433C98DF0A42EFEE5F039CD8AF03C
:10010600A42FFFE5F03EFEE43DFD33D0E0FB5007B3
:100116000BBB000F020280EC2CFCEF33FFEE33FE2C
:06012600ED33FD0202585A
:10012C00020280EC5D046005E8590470030202765B
:10013C00120241580460F6EC4860F2EC7004FDFECB
:10014C00FF22C860DB2481C85009C39860025006A6
:10015C0002027D9850CAF582E9294B4A7005AB82A0
:10016C0002026C75F0007C1A7880C3EF9BEE9AED5E
:10017C0099400DC3EF9BFFEE9AFEED99FDE842F01E
:10018C00DC23ACF0D0E0FFD0E0FED0E0FDAB822071
:10019C00E7101BEB60BAEC2CFCEF33FFEE33FEEDFB
:1001AC0033FD020258E803F830E705C0F075F000A3
:1001BC00EF2FFFEE33FEED33FD40B830E7C280AADF
:1001CC0075F020800E75F010800575F0087D007EAE
:1001DC00007F003392D530D50312061AEC33401051
:1001EC00EF33FFEE33FEED33FDEC33FCD5F0ED22B7
:0E01FC00E5F0247EA2D513CC92E7CDCEFF22F3
:10020A00EDD2E7CD33EC3392D524814006E4FFFEEC
:10021A00FDFC22FCE4CFCECDCC24E0501174FF804B
:10022A00EDC3CC13CCCD13CDCE13CECF13CF0470E8
:07023A00F030D5DE02061AC8
:1007F900E5392425F8E605392278223007027825DB
:10080900E475F0011206280205252000EB7F2ED29F
:10081900008018EF540F2490D43440D4FF30040BD7
:10082900EF24BFB41A0050032461FFE53A600215B2
:100839003A053DE53D7002053C30070D7822E47527
:10084900F001120628EF02056B0211E57403D207C5
:100859008003E4C207F5398B228A238924E4F53A17
:10086900F53CF53DE53A60077F2012083480F575BF
:100879003BFFC201C200C202C203C205C206C208CE
:10088900120802FF700D3007057F00120845AF3DC1
:10089900AE3C22B4255FC2D5C204120802FF24D09F
:1008A900B40A00501A75F00A783A30D50508B6FF2F
:1008B9000106C6A426F620D5047002D20380D924E5
:1008C900CFB41A00EF5004C2E5D204020B32D201B0
:1008D90080C6D20080C0D20280BCD2D580BAD205EF
:1008E90080B47F201208342002077401B53A004011
:1008F900F11207F9FF12083402086DD208D20680F6
:10090900951207F9FB1207F9FA1207F9F94A4B7020
:100919000679297A0C7BFF20022EE53A602A7E00AF
:100929008E8275830012053E60060EEE653B70F0FF
:10093900C2D5EBC0E0EAC0E0E9C0E0EE120B92D00C
:10094900E0F9D0E0FAD0E0FB120525FF60AAEBC080
:10095900E0EAC0E0E9C0E0120834D0E02401F9D0AF
:10096900E03400FAD0E0FBE53B0460DCD53BD980FC
:1009790087D20280A2120B7560F7E53B7001041261
:10098900028BA93B600DE53B600914F53B120C1C79
:10099900EF60F3EA30E702F404C3995077EAF425EB
:1009A9003B0430E701E404F53B800D120B7560C18F
:1009B900EA053B253B12028BEA7838F630E701E479
:1009C900253B04D53B0420050114120B92E4C0E039
:1009D900120C1C7838E6601320E70714F612081C7D
:1009E900802204F6D0E014C0E07F0012081CE53B29
:1009F9006007120813153B800B300503120813D04A
:100A0900E002086DD0E00480C5120B7560A0E53BDB
:100A19000412028B7838EAF6E53B200502600104EE
:050A29002404120B92F1
:100A2E0074FF04C0E0120C1C12081CE53B200502EA
:100A3E006003120813D0E0B53BE87F451208267814
:100A4E0038E67F2B30E7047F2DF404C0E012083423
:100A5E00D0E075F00A84C0F012081DD0E012081D17
:100A6E0002086D791080027908C206C2088008D289
:100A7E00D5790A8004790AC2D5E53B047002F53BAC
:100A8E00E4FAFDFEFF1207F9FC7B082001131207A2
:100A9E00F9FD7B1030000A1207F9FE1207F9FF7BF1
:100AAE0020EC3382D592D55013C3E43000069FFF5D
:100ABE00E49EFEE42001039DFDE49CFCE4CBF8C221
:100ACE0001EC700CCFCECDCCE824F8F870F3801783
:100ADE00C3EF33FFEE33FEED33FDEC33FCEB33FBB4
:100AEE00994002FB0FD8E9EB300105F8D0E0C4487D
:100AFE00B201C0E00AEC4D4E4F78207B0070C2EA86
:100B0E00B53B0040BCC0E0120B94D0F0D0E0200109
:100B1E0004C4C0E0C4B201C0F012081DD0F0D5F07C
:100B2E00EB02086D120638090A530A715808DB4C9D
:100B3E0008D7420A754F0A7D440A7D4908F0430AD8
:100B4E00835509B4460A1245097E470C495008DF01
:100B5E002D08E32E09062B08E7230904200C322A60
:100B6E00089F48000008FEE53BB4FF03753B0612E4
:100B7E0007F9FC1207F9FD1207F9FE1207F9FF78C3
:100B8E00310202BA790AA2D5200314300509B91030
:100B9E00020404B9080104A2D52006025001042063
:100BAE0002689202B53A005034C0E07F203003193B
:100BBE007F30A20272067205500F120BEBC202C2F8
:100BCE0006C205C2087F30800F300503E9C0E0126F
:100BDE000834300503D0E0F9D0E0B53ACC30051733
:100BEE007F30B9100C1208347F583004077F78809C
:100BFE0003B908031208343002057F2D0208347F32
:100C0E00202008F87F2B2006F322920280CF7F004F
:100C1E00B4070050052431F8E6FF22286E756C6C7F
:100C2E002900D2011207F93001F8C201783A30D505
:100C3E000108F602089F2D504349581207F9240364
:100C4E00B405004001E4900C4493120825743A1246
:0A0C5E000825D203753A04020A715A
:10024100E9D2E7C933E833F892D5EDD2E7CD33EC03
:0702510033FC5002B2D5227C
:10025800EC30E7100FBF000C0EBE00080DBD000407
:100268000BEB6014A2D5EB13FCED92E7FD2274FFB3
:10027800FCFDFEFF22E480F8A2D574FF13FC7D800C
:03028800E480EF20
:10028B00F920E72824F950037907E4F42402FB183A
:10029B00DBFDE624FB5014E9600DE4F618E604F6EA
:0F02AB00B40A08E4F6D9F57401F60A22C2D52286
:1002BA00ED33EC3392D5FA602AB4FF33EDC2E77B13
:1002CA00FF60067A0279DFE4227A0279E820D5040F
:1002DA007A0279E3224E614E002B494E46002D499F
:1002EA004E4600E47A08F608DAFC7B00740722E836
:1002FA00C0E0ECC0E0EDC0E0EEC0E0EFC0E0EA75BF
:10030A00F010A4CAABF075F04DA42BFBE435F0FC59
:10031A00EA2410FAEB34C5FBEC34D9FCEDC2E7FF52
:10032A0075F056A4F42411C5F0F434C58FF0A42A4C
:10033A00E5F03BE43CF620E7141204E5D0E0FFD0F8
:10034A00E0FED0E0FDD0E0FC12012F8014F404128C
:10035A0004E5D0E0FFD0E0FED0E0FDD0E0FC1200E2
:10036A0026D0E0F8E6FAEDD2E7CD33EC332482FB6F
:10037A00E4C3CF33CFCE33CECD33CD33DBF37B07DC
:10038A0075F00A846004F6081B0AE5F0F6088FF097
:10039A00740AA4FFACF08EF0740AA42CFEACF050E0
:1003AA00010C8DF0740AA42CFDE435F0F608DBDEAE
:0303BA00740722A3
:1003BD00020276E86480F8E933E83360110460F0F6
:1003CD00ED33EC337009E8FCE9FDEAFEEBFF2204A6
:1003DD0060DED3EB9FEA9EE99DE8C2E78CF0C2F7A1
:1003ED0095F0400CE8CCF8E9CDF9EACEFAEBCFFB6D
:1003FD0012024185D0F05804700320D5B3E8047083
:10040D00075002B2D502028092D5EC0460F7E4CC1D
:10041D00C0E0C398F8603B94186008400DD0E0FB35
:10042D00020258E4FBFAC9FC8028E830E406E4C96E
:10043D00FBE4CAFCE830E305E4C9CACBFCE8540789
:10044D006010F8C3E913F9EA13FAEB13FBEC13FC94
:10045D00D8F130F52FC3E49CFCEF9BFFEE9AFEED37
:10046D0099FDD0E0FBEF4E4D4C701222DB030202E2
:10047D007DEC2CFCEF33FFEE33FEED33FDED30E77D
:10048D00EB020258EF2BFFEE3AFEED39FDD0E0FB0B
:10049D0050130BBB0003020280ED13FDEE13FEEFB4
:0804AD0013FFEC13FC020258DE
:1004B5003F8000004120000042C80000447A00004F
:1004C500461C400047C35000497424004B189680D1
:1004D5004CBEBC205A0E1BCA6753C21C749DC5AEC8
:1004E500FB60065407601C2323120513EB54386088
:1004F500091204FF12050E120026ECF8EDF9EEFACA
:10050500EFCB22EB12050E80F1543803241C900426
:10051500B5FE93FC0EEE93FD0EEE930ECE93FF22E9
:100E98000212FAE493A3F8E493A34003F68001F264
:100EA80008DFF48029E493A3F85407240CC8C3335B
:100EB800C4540F4420C8834004F456800146F6DF2A
:100EC800E4800B01020408102040809010B6E47EF4
:100ED800019360BCA3FF543F30E509541FFEE4931F
:100EE800A360010ECF54C025E060A840B8E493A3E6
:100EF800FAE493A3F8E493A3C8C582C8CAC583CA11
:100F0800F0A3C8C582C8CAC583CADFE9DEE780BEC8
:0111040000EA
:10052500BB010689828A83E0225002E722BBFE02D4
:09053500E32289828A83E4932207
:10053E00BB010CE58229F582E5833AF583E0225072
:10054E0006E92582F8E622BBFE06E92582F8E222BC
:0D055E00E58229F582E5833AF583E49322D6
:10056B00BB010689828A83F0225002F722BBFE016F
:02057B00F32269
:10057D00EF8DF0A4A8F0CF8CF0A428CE8DF0A42E92
:02058D00FE224C
:10058F00BC000BBE0029EF8DF084FFADF022E4CC50
:10059F00F875F008EF2FFFEE33FEEC33FCEE9DEC19
:1005AF00984005FCEE9DFE0FD5F0E9E4CEFD22ED5F
:1005BF00F8F5F0EE8420D21CFEADF075F008EF2FA9
:1005CF00FFED33FD4007985006D5F0F222C398FD9A
:0505DF000FD5F0EA2237
:1005E400C2D5EC30E709B2D5E4C39DFDE49CFCEE32
:1005F40030E715B2D5E4C39FFFE49EFE12058FC316
:10060400E49DFDE49CFC800312058F30D507C3E410
:060614009FFFE49EFE22A0
:0E061A00C3E49FFFE49EFEE49DFDE49CFC22F1
:10062800FAE6FB0808E6F925F0F618E6CA3AF622D3
:10063800D083D082F8E4937012740193700DA3A351
:1006480093F8740193F5828883E473740293686065
:06065800EFA3A3A380DF65
:1011E500EFB40A07740D1211F0740A309811A8991A
:1011F500B8130CC2983098FDA899C298B811F6306A
:0712050099FDC299F5992241
:10065E00E3F5F009E208B5F06D606B80F3E3F5F0B9
:10066E0009E608B5F060605E80F387F009E608B52C
:10067E00F054605280F487F009E208B5F048604605
:10068E0080F488828C8387F009E0A3B5F038603659
:10069E0080F488828C8387F009E493A3B5F02760F9
:1006AE002580F388828C83E3F5F009E0A3B5F0167C
:1006BE00601480F388828C83E3F5F009E493A3B58C
:1006CE00F004600280F2020789808580E7808E80C8
:1006DE00D2803C8015806C807E809B80B5808B8024
:1006EE00A1804F8070803A02079589828A83ECFA46
:1006FE00E493F5F0A3C8C582C8CCC583CCE493A31C
:10070E00C8C582C8CCC583CCB5F070606E80E18957
:10071E00828A83E493F5F0A3E208B5F05E605C8014
:10072E00F289828A83E0F5F0A3E608B5F04D604BBE
:10073E0080F389828A83E0F5F0A3E208B5F03C608D
:10074E003A80F389828A83E493F5F0A3E608B5F044
:10075E002A602880F2805389828A83ECFAE493F52A
:10076E00F0A3C8C582C8CCC583CCE0A3C8C582C8D7
:10077E00CCC583CCB5F004600280E27FFFB5F002F9
:10078E000F2240027F012289828A83ECFAE0F5F083
:10079E00A3C8C582C8CCC583CCE0A3C8C582C8CCCB
:1007AE00C583CCB5F0D560D380E389828A83ECFA19
:1007BE00E0F5F0A3C8C582C8CCC583CCE493A3C82A
:1007CE00C582C8CCC583CCB5F0B160AF80E288F0ED
:1007DE00ED2402B4040050A3F582EB2402B404000D
:0B07EE00509923234582239006D77307
:00000001FF
