:030000000204C82F
:0C04C800787FE4F6D8FD75816102050F15
:10055400C101C100C102C103015F00015E18025B59
:050564000000015D0034
:100ABC00120AA8120A7F120ACD12096F12065D8063
:010ACC00FB2E
:10065D0012042130005AC200120A0C200213E55E6A
:10066D0075F00AA4FFD3E5619FE56095F0401C800D
:10067D0016E5097016C374809480400FD3E5089475
:10068D0005748094805004D2058002C205120A655B
:10069D001206CDE55F700512073A8014E55F64011F
:1006AD0070051208778009E55F6402700312093E38
:1006BD0030010CC2011205DF8E608F61120ACD224E
:10081100BF390C200204D2028005300202C202BF9D
:100821002D1FE55FFD7C007005755F018013ED6490
:10083100014C7005755F028008ED64024C7002F591
:100841005FE55FFD7C0064017005BF4402D203EDEA
:1008510064024C7020E55EFDC39463748094805003
:1008610014ED940A74809480400BBF4303055E220B
:06087100BF4402155E22E7
:0C0AE700BF4408E55F64017002C20322F6
:03000B000207A643
:1007A600C0E0C0F0C083C082C0D075D000C000C019
:0D07B60001C002C003C004C005C006C0079A
:1007C300120340120907055CE55C7002055B055DD9
:1007D300C3E55D9464748094804005755D00D20028
:1007E300C3E55C9420E55B94034008755B00755C8E
:0307F30000D20130
:1007F600D007D006D005D004D003D002D001D00057
:0B080600D0D0D082D083D0F0D0E03200
:0A0AF300C0F9A4B0999282F8809037
:0C056900C1040853FFFFFFFFFFFFFFFF6E
:10090700E4F5807F06120ADAAF52A807740108805F
:1009170002C333D8FCF580E4FF120ADA7580FF7F43
:1009270007120ADA74532552F8E6F580E4FF120A33
:06093700DA0552535207DD
:01093D002297
:10073A007553C1900AF4E493F5547556FF7557FF43
:10074A00AE60AF617C007D641202DD7C007D0A121E
:10075A0002DD74F32DF582740A3CF583E493F558AF
:10076A00AE60AF617C007D0A1202DD7C007D0A1258
:10077A0002DD74F32DF582740A3CF583E493547F09
:10078A00F559AE60AF617C007D0A1202DD74F32D6B
:0C079A00F582740A3CF583E493F55A22C2
:100877007553C1900AF5E493F554200321E50AC4A2
:10088700540F900AF393F556E50A540F93F55775ED
:1008970058BFE509C4540F93F559E509801FE509C9
:1008A700C4540F900AF393F556E509540F93F5577F
:1008B7007558BFE508C4540F93F559E508540F93CD
:0308C700F55A22BD
:10093E007553C1900AF6E493F5547556FF7557FF3B
:10094E007558FFE55E75F00A8475F00A84E5F0903F
:10095E000AF393F559E55E75F00A84E5F093F55ABE
:01096E002266
:1006CD007580FFE509701EC3748094804017D3E5D3
:1006DD0008940574809480500C7F04120ADAC2804D
:1006ED00E4FF120ADAE5086405700C7F04120ADAD9
:1006FD00D280E4FF120ADA2002097F04120ADAC25C
:10070D0081800A30020C7F04120ADAD281E4FF12D2
:10071D000ADA7F04200507120ADAD2828009120A4A
:0D072D00DAA2049282B204E4FF120ADA227A
:100575005000003132334134353642373839432B58
:10058500302D441042010101010101010101010168
:100595000101010101102101010101010101010117
:1005A500010101010101010131001032FFFFFFFFCF
:0C05B500FFFFFFFFFFFFFFFFFFFFFFFF46
:10042100E4F51DC3E51D9404748094804003020427
:10043100C7E4F51EC3E51E94047480948040030252
:1004410004C2E51D25E025E02442251EF8E6FFE56E
:100451001D25E025E02421251EF8E6FE6F605DEEF6
:100461006021E51D25E025E02400F582E43400F556
:1004710083E582251EF582E43583F583E0FF1208CA
:1004810011801FE51D25E025E02400F582E43400FC
:10049100F583E582251EF582E43583F583E0FF12BD
:1004A1000AE7E51D25E025E02442251EF8E6FFE5E3
:1004B1001D25E025E02421251EF8A607051E0204BE
:0604C10035051D020424B4
:0104C7002212
:10034000E53125E025E02432F8E625E0FFA2C4E40B
:10035000334FFFE53125E025E02432F8A607E531EB
:1003600025E025E02433F8E625E0FFA2C2E4334F80
:10037000FFE53125E025E02433F8A607E53125E047
:1003800025E02434F8E625E0FFA2B5E4334FFFE58D
:100390003125E025E02434F8A607E53125E025E005
:1003A0002435F8E625E0FFA2B4E4334FFFE531251C
:1003B000E025E02435F8A607E4FFEFC39404748039
:1003C00094805035E53125E025E024322FF8E654BD
:1003D0000FFD7C00700EE53125E025E024422FF86A
:1003E000E4F68012ED640F4C700CE53125E025E059
:1003F00024422FF876010F80C10531533103E531D6
:1004000014600F14601114601324037013D2B3C26C
:10041000B022D2B0C2B122D2B1C2B222D2B2C2B3E1
:0104200022B9
:1005C100070F81838587898B8D07168082848688B2
:0B05D1008A8C070855592330030723CC
:100A4900E4FEEEC3940874809480500FC297EF13AC
:0B0A590092A3EFC313FFD2970E80E7BB
:010A6400226F
:100A9400C29300C29700D29300120A49AF05120A0A
:040AA40049C293228E
:1008CA00E4FDC29300C29700D29300120A49E4FFE2
:1008DA00EFC39408748094805011C297EDC313FD3E
:1008EA0030A303430580D2970F80E5C29300C297D5
:0C08FA0000D29700C2A300D2A300AF05FB
:0109060022CE
:100A0C00E4FCECC39407748094805012740F2CF89F
:0E0A1C00E6FF1208CA74082CF8A6070C80E446
:010A2A0022A9
:10096F00E4FD7F8E120A94E4FCECC3940774809428
:10097F0080501274162CF8E6FF74082CF8E6FD125E
:0C098F000A940C80E47D807F8E020A94A4
:040A2B007F057E00C5
:100A2F00EF1FAA0670011E4A600FE4FDEDC3940C80
:090A3F007480948050EA0D80F3EC
:010A4800228B
:02099B00A907AA
:10099D00E4FBEBC39408748094805012C294E91365
:1009AD009294120A2BD294E9C313F90B80E47F05BC
:0509BD007E00020A2F7C
:1009E900E4FBEBC39408748094805014C294ECC364
:1009F90013FCD294309403430480120A2B0B80E237
:020A0900AF0438
:010A0B0022C8
:1009C200C206D2947F0C7E00120A2FC2947F507E00
:1009D20000120A2FD2947F0A7E00120A2FA294924A
:0609E20006120A2BA2061A
:0109E80022EC
:0D0ACD001209C27FCC12099B7F4402099BD5
:1005DF001209C27FCC12099B7FBE12099B1209E937
:1005EF00A9071209E9EFFEE9FDEEF51DEDF51EE590
:1005FF001D54F87054E51DC4F854F0C868F51DE596
:10060F001EC4540F48F51EAE1DFF7C007D0A12025A
:10061F00CB8E1D8F1EE9540FFCE4120216E4FBFA79
:10062F007920783F120106C004C005C006C007AC90
:10063F001DAD1EE4120211D003D002D001D0001262
:0D064F00001512024A8E1D8F1EAE1DAF1E3B
:01065C00227B
:0205DC00C10557
:0D0ADA0053A01FEF5407C43354E042A02284
:100AA8007F04120ADA7580FF7F05120ADAE4F580FE
:040AB800FF020ADA55
:100A7F00438E805389F0758A20758CD1C28DD28CAC
:050A8F00D2A9D2AF2244
:100A6500E4F5807F05200507120ADAC284800512A5
:0A0A75000ADAD284E4FF120ADA2242
:10000E000202B6E86480F8E933E83360110460F068
:10001E00ED33EC337009E8FCE9FDEAFEEBFF220458
:10002E0060DED3EB9FEA9EE99DE8C2E78CF0C2F753
:10003E0095F0400CE8CCF8E9CDF9EACEFAEBCFFB1F
:10004E0012028185D0F05804700320D5B3E80470F5
:10005E00075002B2D50202C092D5EC0460F7E4CC90
:10006E00C0E0C398F8603B94186008400DD0E0FBE8
:10007E00020298E4FBFAC9FC8028E830E406E4C9E1
:10008E00FBE4CAFCE830E305E4C9CACBFCE854073C
:10009E006010F8C3E913F9EA13FAEB13FBEC13FC47
:1000AE00D8F130F52FC3E49CFCEF9BFFEE9AFEEDEA
:1000BE0099FDD0E0FBEF4E4D4C701222DB03020295
:1000CE00BDEC2CFCEF33FFEE33FEED33FDED30E7F0
:1000DE00EB020298EF2BFFEE3AFEED39FDD0E0FB7E
:1000EE0050130BBB00030202C0ED13FDEE13FEEF27
:0800FE0013FFEC13FC02029851
:10010600EC4D6011E8497017ED33EC3304600DE4F3
:10011600FCFFFEFD22E933E8330470F80202B61252
:10012600028158046009E4CC248150062850090253
:1001360002C02840030202BDC0E0EB4A7044B98009
:1001460006D0E0FB0202ACEF4E701CBD8008EBFF50
:10015600EAFEE9FD80EBE98DF0A4FEE5F00201EF91
:10016600E9CDF9EAFEEBFFEF89F0A4FCE5F0CE89D4
:10017600F0A42EFFE435F0CD89F0A42DFEE435F091
:100186008067EF4E7005BD80D780C3EF8BF0A4ACBF
:10019600F0EE8BF0A42CFCE435F0F8EF8AF0A42CFA
:1001A600E5F038FCE433CB8DF0A42CFCE5F03BF80D
:1001B600EE8AF0A42CFCE5F038F8E433CF89F0A4FD
:1001C6002CFCE5F038CF3400CE89F0A42FFFE5F003
:1001D6003EFEE433C98DF0A42EFEE5F039CD8AF05B
:1001E600A42FFFE5F03EFEE43DFD33D0E0FB5007D3
:1001F6000BBB000F0202C0EC2CFCEF33FFEE33FE0C
:06020600ED33FD02029839
:10020C0075F020800E75F010800575F0087D007E6D
:10021C00007F003392D530D503120332EC334010FB
:10022C00EF33FFEE33FEED33FDEC33FCD5F0ED2276
:0E023C00E5F0247EA2D513CC92E7CDCEFF22B2
:10024A00EDD2E7CD33EC3392D524814006E4FFFEAC
:10025A00FDFC22FCE4CFCECDCC24E0501174FF800B
:10026A00EDC3CC13CCCD13CDCE13CECF13CF0470A8
:07027A00F030D5DE02033273
:10028100E9D2E7C933E833F892D5EDD2E7CD33ECC3
:0702910033FC5002B2D5223C
:10029800EC30E7100FBF000C0EBE00080DBD0004C7
:1002A8000BEB6014A2D5EB13FCED92E7FD2274FF73
:1002B800FCFDFEFF22E480F8A2D574FF13FC7D80CC
:0302C800E480EFE0
:1004D400020ABCE493A3F8E493A34003F68001F278
:1004E40008DFF48029E493A3F85407240CC8C33329
:1004F400C4540F4420C8834004F456800146F6DFF8
:10050400E4800B0102040810204080900554E47E2E
:10051400019360BCA3FF543F30E509541FFEE493EC
:10052400A360010ECF54C025E060A840B8E493A3B3
:10053400FAE493A3F8E493A3C8C582C8CAC583CADE
:10054400F0A3C8C582C8CAC583CADFE9DEE780BE96
:0105DE00001C
:1002CB00EF8DF0A4A8F0CF8CF0A428CE8DF0A42E47
:0202DB00FE2201
:1002DD00BC000BBE0029EF8DF084FFADF022E4CC05
:1002ED00F875F008EF2FFFEE33FEEC33FCEE9DECCE
:1002FD00984005FCEE9DFE0FD5F0E9E4CEFD22ED14
:10030D00F8F5F0EE8420D21CFEADF075F008EF2F5D
:10031D00FFED33FD4007985006D5F0F222C398FD4E
:05032D000FD5F0EA22EB
:0E033200C3E49FFFE49EFEE49DFDE49CFC22DC
:00000001FF
