:03000000020B6789
:0C0B6700787FE4F6D8FD758160020BAECB
:10117B0054454D503A252E3166E284830D0A0056B4
:0F118B006F6C746167653A252E3266560D0A0047
:100CF600C109C10AC10CC10B54000000000000006C
:100D060000000000000000000000000000000001DC
:060D1600080002090000C4
:101213001212261211FF1212481211EAD2AF120D46
:031223006C80FBE1
:100D6C00120C77300947C2097F43121048750B00EB
:100D7C008F0CAE0B7C007D6412057D7D3312058FCC
:100D8C008E0B8F0C12101C120FED200C05120E4541
:100D9C008003120EAB200B15E4F51A900014E0FF43
:100DAC00B44104C20C8006EFB44202D20C300A1FCC
:100DBC00C20A120BF38E0D8F0ED3E50E94F4E50DD3
:100DCC00940140028006850D0F850E1012124822E8
:100F1100BF3403C20B22BF3103D20B22EF64367000
:100F210051200C197548FF754911754A7BAC0FADFD
:100F3100101202C9E4FBFA7920784180187548FF44
:100F4100754911754A8AAC0BAD0CE41202C9E4FB78
:100F5100FA79C878421202278F4E8E4D8D4C8C4BF8
:100F61007B017A0079001206847B017A00790012F4
:030F710011332217
:03000B00020DDC07
:100DDC00C0E0C0F0C083C082C0D075D000C000C0DD
:0D0DEC0001C002C003C004C005C006C0075E
:100DF900120F74120A970508C3E508946474809465
:100E0900804005750800D209050AE50A700205093E
:100E1900C39420E50994034008750900750A00D2B6
:010E29000ABE
:100E2A00D007D006D005D004D003D002D001D0001C
:0B0E3A00D0D0D082D083D0F0D0E032C6
:0800030031323341343536423D
:100D1C00103301010101010101010000000000007C
:100D2C00000008220101010101010101082AFFFF55
:090D3C00FFFFFFFFFFFF01320081
:100C7700E4F543C3E5439402748094805070E4F52F
:100C870044C3E544940474809480505EE54325E0B2
:100C970025E024332544F8E6FFE54325E025E02455
:100CA700222544F8E6FE6F603DEE6020E54325E02F
:100CB70025E02403F582E43400F583E5822544F535
:100CC70082E43583F583E493FF120F11E54325E0B2
:100CD70025E024332544F8E6FFE54325E025E02415
:0E0CE700222544F8A607054480970543808522
:010CF50022DC
:100A9700E53225E025E0242AF8E625E0FFA2C4E4B4
:100AA700334FFFE53225E025E0242AF8A607E53293
:100AB70025E025E0242BF8E625E0FFA2C2E4334F2A
:100AC700FFE53225E025E0242BF8A607E53225E0EF
:100AD70025E0242CF8E625E0FFA2B5E4334FFFE537
:100AE7003225E025E0242CF8A607E53225E025E0AD
:100AF700242DF8E625E0FFA2B4E4334FFFE53225C5
:100B0700E025E0242DF8A607E4FFEFC394047480E2
:100B170094805035E53225E025E0242A2FF8E65465
:100B27000FFD7C00700EE53225E025E024332FF819
:100B3700E4F68012ED640F4C700CE53225E025E0F9
:100B470024332FF876010F80C10532533201E53285
:0F0B5700146008047009D2B3C2B222D2B2C2B382
:010B6600226C
:0A126E00C0F9A4B0999282F88090B4
:0C0D4500C10D0812FFFFFFFFFFFFFFFFC2
:100F74007F071212557580FFE4FF121255E4F580C5
:100F84007F06121255AF11A8077401088002C333FB
:100F9400D8FCF580E4FF1212557580FF7F0712120A
:100FA4005574122511F8E6F580E4FF121255051167
:030FB400531107CF
:010FB7002217
:100E45007512C190126FE493F513AE0FAF107C00CD
:100E55007D6412058F7C007D0A12058F746E2DF559
:100E65008274123CF583E493F517AE0FAF107C0046
:100E75007D0A12058F7C007D0A12058F746E2DF593
:100E85008274123CF583E493547FF518AE0FAF10CE
:100E95007C007D0A12058F746E2DF58274123CF567
:060EA50083E493F519221D
:100EAB007512C1901270E493F513AE0BAF0C7C006E
:100EBB007D6412058F7C007D0A12058F746E2DF5F3
:100ECB008274123CF583E493547FF517AE0BAF0C91
:100EDB007C007D0A12058F7C007D0A12058F746ED3
:100EEB002DF58274123CF583E493F518AE0BAF0C21
:100EFB007C007D0A12058F746E2DF58274123CF501
:060F0B0083E493F51922B6
:10101C007580FF7F04121255200C04C2808002D20E
:10102C0080300C04C2818002D281300B08A20D9258
:0C103C0082B20D8002D282E4FF02125545
:0411B800D2A07F053D
:1011BC00000000000000000000000000000000AE75
:0611CC00071FEE70EB228C
:0F123900D2A11211B8C2A17F051211BCC2A0220E
:0C126200C2A11211B8D2A17F050211BC7C
:020FB800AD0783
:100FBA00E4FCECC39408748094805024C2A07F059A
:100FCA001211BCED30E704D2A18002C2A17F051242
:100FDA0011BCD2A0ED25E0FD7F051211BC0C80D218
:020FEA00C2A0A3
:010FEC0022E2
:1010E700E4FCECC394087480948050171211B8ED97
:1010F70025E0FD30A103430501C2A07F051211BC05
:051107000C80DFAF05C4
:01110C0022C0
:03000E00120FB816
:100011001211B8A2A1E433FDC2A07F051211BCAF39
:0100210005D9
:0100220022BB
:1011D200C2A0EF24FF92A17F051211BC1211B8C266
:0811E200A0D2A17F050211BC9F
:02104800AB07F4
:10104A001212397F9012000EAF0312000E121239DB
:10105A007F91120FB81200111210E7AD077F01122B
:07106A0011D2121262AF0562
:01107100225C
:04119A007F057E004F
:10119E00EF1FAA0670011E4A600FE4FDEDC3940C0A
:0911AE007480948050EA0D80F376
:0111B7002215
:02107200A907CC
:10107400E4FBEBC39408748094805012C294E91387
:10108400929412119AD294E9C313F90B80E47F0568
:051094007E0002119E28
:10115800E4FBEBC39408748094805014C294ECC3ED
:1011680013FCD29430940343048012119A0B80E24A
:02117800AF04C2
:01117A002252
:10109900C200D2947F0C7E0012119EC2947F507EB2
:1010A9000012119ED2947F0A7E0012119EA2949280
:0610B9000012119AA200D2
:0110BF00220E
:0D1248001210997FCC1210727F44021072B8
:100BF3001210997FCC1210727FBE1210721211580C
:100C0300A9071211587543008F44E544FEE9FDEE30
:100C1300F543EDF544E54354F87054E543C4F85403
:100C2300F0C868F543E544C4540F48F544AE43FFA8
:100C33007C007D0A12057D8E438F44E9540FFCE44A
:100C43001202CEE4FBFA7920783F12011EC004C0E1
:100C530005C006C007AC43AD44E41202C9D003D0BB
:100C630002D001D00012002D1203028E438F44AE36
:030C730043AF4448
:010C7600225B
:100D5100540014000000000000000000000000002A
:0A0D610000000000000000011A006D
:0D12550053A01FEF5407C43354E042A02201
:1011FF007F041212557580FF7F05121255E4F5809A
:04120F00FF02125573
:10122600438E805389F0758A20758CD1C28DD28CFD
:03123600D2A92218
:1011EA00759850438E01438E0475D7C775D6FE4352
:0511FA008E10D2AC22B2
:081278008F993099FDC2992203
:101133008B458A468947AB45AA46A94712052560D0
:10114300130547E5477002054614F9120525FF12FA
:05115300127880E22289
:0300230002110DBA
:10110D00C0E0C083C082C0D03098127414251AF587
:10111D0082E43400F583E599F0051AC298D0D0D059
:06112D0082D083D0E03205
:100FED00E4F5807F05121255C3E5109418E50F94B2
:100FFD00014004D2848002C284D3E50C9468E50BD1
:0F100D0094014004D2868002C286E4FF0212558D
:1000260002036EE86480F8E933E83360110460F097
:10003600ED33EC337009E8FCE9FDEAFEEBFF220440
:1000460060DED3EB9FEA9EE99DE8C2E78CF0C2F73B
:1000560095F0400CE8CCF8E9CDF9EACEFAEBCFFB07
:1000660012033985D0F05804700320D5B3E8047024
:10007600075002B2D502037892D5EC0460F7E4CCBF
:10008600C0E0C398F8603B94186008400DD0E0FBD0
:10009600020350E4FBFAC9FC8028E830E406E4C910
:1000A600FBE4CAFCE830E305E4C9CACBFCE8540724
:1000B6006010F8C3E913F9EA13FAEB13FBEC13FC2F
:1000C600D8F130F52FC3E49CFCEF9BFFEE9AFEEDD2
:1000D60099FDD0E0FBEF4E4D4C701222DB0302037C
:1000E60075EC2CFCEF33FFEE33FEED33FDED30E720
:1000F600EB020350EF2BFFEE3AFEED39FDD0E0FBAD
:1001060050130BBB0003020378ED13FDEE13FEEF55
:0801160013FFEC13FC0203507F
:10011E00EC4D6011E8497017ED33EC3304600DE4DB
:10012E00FCFFFEFD22E933E8330470F802036E1281
:10013E00033958046009E4CC248150062850090282
:10014E000378284003020375C0E0EB4A7044B9807F
:10015E0006D0E0FB020364EF4E701CBD8008EBFF7F
:10016E00EAFEE9FD80EBE98DF0A4FEE5F002020760
:10017E00E9CDF9EAFEEBFFEF89F0A4FCE5F0CE89BC
:10018E00F0A42EFFE435F0CD89F0A42DFEE435F079
:10019E008067EF4E7005BD80D780C3EF8BF0A4ACA7
:1001AE00F0EE8BF0A42CFCE435F0F8EF8AF0A42CE2
:1001BE00E5F038FCE433CB8DF0A42CFCE5F03BF8F5
:1001CE00EE8AF0A42CFCE5F038F8E433CF89F0A4E5
:1001DE002CFCE5F038CF3400CE89F0A42FFFE5F0EB
:1001EE003EFEE433C98DF0A42EFEE5F039CD8AF043
:1001FE00A42FFFE5F03EFEE43DFD33D0E0FB5007BB
:10020E000BBB000F020378EC2CFCEF33FFEE33FE3A
:06021E00ED33FD02035068
:10022400020378EC5D046005E85904700302036E70
:10023400120339580460F6EC4860F2EC7004FDFED9
:10024400FF22C860DB2481C85009C39860025006AD
:100254000203759850CAF582E9294B4A7005AB82AE
:1002640002036475F0007C1A7880C3EF9BEE9AED6C
:1002740099400DC3EF9BFFEE9AFEED99FDE842F025
:10028400DC23ACF0D0E0FFD0E0FED0E0FDAB822078
:10029400E7101BEB60BAEC2CFCEF33FFEE33FEED02
:1002A40033FD020350E803F830E705C0F075F000B1
:1002B400EF2FFFEE33FEED33FD40B830E7C280AAE6
:1002C40075F020800E75F010800575F0087D007EB5
:1002D400007F003392D530D5031205E4EC3340108F
:1002E400EF33FFEE33FEED33FDEC33FCD5F0ED22BE
:0E02F400E5F0247EA2D513CC92E7CDCEFF22FA
:10030200EDD2E7CD33EC3392D524814006E4FFFEF3
:10031200FDFC22FCE4CFCECDCC24E0501174FF8052
:10032200EDC3CC13CCCD13CDCE13CECF13CF0470EF
:07033200F030D5DE0205E406
:10062800E55C2448F8E6055C2278453007027848FE
:10063800E475F0011205F20205252000EB7F2ED2A9
:10064800008018EF540F2490D43440D4FF30040BAA
:10065800EF24BFB41A0050032461FFE55D60021562
:100668005D0560E5607002055F30070D7845E4754B
:10067800F0011205F2EF02056B0210C07403D207F5
:100688008003E4C207F55C8B458A468947E4F55D3B
:10069800F55FF560E55D60077F2012066380F575FC
:1006A8005EFFC201C200C202C203C205C206C2087E
:1006B800120631FF700D3007057F00120674AF6017
:1006C800AE5F22B4255FC2D5C204120631FF24D022
:1006D800B40A00501A75F00A785D30D50508B6FFDF
:1006E8000106C6A426F620D5047002D20380D924B8
:1006F800CFB41A00EF5004C2E5D204020961D20156
:1007080080C6D20080C0D20280BCD2D580BAD205C1
:1007180080B47F201206632002077401B55D004093
:10072800F1120628FF12066302069CD208D2068040
:1007380095120628FB120628FA120628F94A4B7069
:100748000679587A0A7BFF20022EE55D602A7E0032
:100758008E8275830012053E60060EEE655E70F0AF
:10076800C2D5EBC0E0EAC0E0E9C0E0EE1209C1D0B2
:10077800E0F9D0E0FAD0E0FB120525FF60AAEBC053
:10078800E0EAC0E0E9C0E0120663D0E02401F9D055
:10079800E03400FAD0E0FBE55E0460DCD55ED98089
:1007A80087D20280A21209A460F7E55E70010412E4
:1007B8000383A95E600DE55E600914F55E120A4BBD
:1007C800EF60F3EA30E702F404C3995077EAF425BE
:1007D8005E0430E701E404F55E800D1209A460C1EF
:1007E800EA055E255E120383EA785BF630E701E4EA
:1007F800255E04D55E04200501141209C1E4C0E099
:10080800120A4B785BE6601320E70714F612064BD2
:10081800802204F6D0E014C0E07F0012064BE55EAB
:100828006007120642155E800B300503120642D09F
:10083800E002069CD0E00480C51209A460A0E55E31
:1008480004120383785BEAF6E55E20050260010482
:0508580024041209C197
:10085D0074FF04C0E0120A4B12064BE55E20050240
:10086D006003120642D0E0B55EE87F45120655786A
:10087D005BE67F2B30E7047F2DF404C0E0120663A6
:10088D00D0E075F00A84C0F012064CD0E012064C90
:10089D0002069C791080027908C206C2088008D22F
:1008AD00D5790A8004790AC2D5E55E047002F55E39
:1008BD00E4FAFDFEFF120628FC7B08200113120648
:1008CD0028FD7B1030000A120628FE120628FF7B39
:1008DD0020EC3382D592D55013C3E43000069FFF30
:1008ED00E49EFEE42001039DFDE49CFCE4CBF8C2F4
:1008FD0001EC700CCFCECDCCE824F8F870F3801756
:10090D00C3EF33FFEE33FEED33FDEC33FCEB33FB86
:10091D00994002FB0FD8E9EB300105F8D0E0C4484F
:10092D00B201C0E00AEC4D4E4F78207B0070C2EA58
:10093D00B55E0040BCC0E01209C3D0F0D0E020018C
:10094D0004C4C0E0C4B201C0F012064CD0F0D5F022
:10095D00EB02069C12060207395308A058070A4CF1
:10096D0007064208A44F08AC4408AC49071F4308CA
:10097D00B25507E34608414507AD470A7850070EC3
:10098D002D07122E07352B0716230733200A612A50
:10099D0006CE480000072DE55EB4FF03755E061216
:1009AD000628FC120628FD120628FE120628FF78DE
:1009BD00540203B2790AA2D5200314300509B910E7
:1009CD00020404B9080104A2D52006025001042036
:1009DD0002689202B55D005034C0E07F20300319EB
:1009ED007F30A20272067205500F120A1AC202C29D
:1009FD0006C205C2087F30800F300503E9C0E01242
:100A0D000663300503D0E0F9D0E0B55DCC300517B5
:100A1D007F30B9100C1206637F583004077F788041
:100A2D0003B908031206633002057F2D0206637FAA
:100A3D00202008F87F2B2006F322920280CF7F0022
:100A4D00B4070050052454F8E6FF22286E756C6C2F
:100A5D002900D2011206283001F8C201785D30D587
:100A6D000108F60206CE2D504349581206282403DC
:100A7D00B405004001E4900A7393120654743A12BF
:0A0A8D000654D203755D040208A0B0
:10033900E9D2E7C933E833F892D5EDD2E7CD33EC0A
:0703490033FC5002B2D52283
:10035000EC30E7100FBF000C0EBE00080DBD00040E
:100360000BEB6014A2D5EB13FCED92E7FD2274FFBA
:10037000FCFDFEFF22E480F8A2D574FF13FC7D8013
:03038000E480EF27
:10038300F920E72824F950037907E4F42402FB1841
:10039300DBFDE624FB5014E9600DE4F618E604F6F1
:0F03A300B40A08E4F6D9F57401F60A22C2D5228D
:1003B200ED33EC3392D5FA602AB4FF33EDC2E77B1A
:1003C200FF60067A0379D7E4227A0379E020D50424
:1003D2007A0379DB224E614E002B494E46002D49AD
:1003E2004E4600E47A08F608DAFC7B00740722E83D
:1003F200C0E0ECC0E0EDC0E0EEC0E0EFC0E0EA75C6
:10040200F010A4CAABF075F04DA42BFBE435F0FC60
:10041200EA2410FAEB34C5FBEC34D9FCEDC2E7FF59
:1004220075F056A4F42411C5F0F434C58FF0A42A53
:10043200E5F03BE43CF620E7141204E5D0E0FFD0FF
:10044200E0FED0E0FDD0E0FC1202278014F404129A
:1004520004E5D0E0FFD0E0FED0E0FDD0E0FC1201E8
:100462001ED0E0F8E6FAEDD2E7CD33EC332482FB7E
:10047200E4C3CF33CFCE33CECD33CD33DBF37B07E3
:1004820075F00A846004F6081B0AE5F0F6088FF09E
:10049200740AA4FFACF08EF0740AA42CFEACF050E7
:1004A200010C8DF0740AA42CFDE435F0F608DBDEB5
:0304B200740722AA
:1004B5003F8000004120000042C80000447A00004F
:1004C500461C400047C35000497424004B189680D1
:1004D5004CBEBC205A0E1BCA6753C21C749DC5AEC8
:1004E500FB60065407601C2323120513EB54386088
:1004F500091204FF12050E12011EECF8EDF9EEFAD1
:10050500EFCB22EB12050E80F1543803241C900426
:10051500B5FE93FC0EEE93FD0EEE930ECE93FF22E9
:100B7300021213E493A3F8E493A34003F68001F273
:100B830008DFF48029E493A3F85407240CC8C33383
:100B9300C4540F4420C8834004F456800146F6DF52
:100BA300E4800B0102040810204080900CF6E47EE0
:100BB300019360BCA3FF543F30E509541FFEE49347
:100BC300A360010ECF54C025E060A840B8E493A30E
:100BD300FAE493A3F8E493A3C8C582C8CAC583CA39
:100BE300F0A3C8C582C8CAC583CADFE9DEE780BEF1
:010D6B000087
:10052500BB010689828A83E0225002E722BBFE02D4
:09053500E32289828A83E4932207
:10053E00BB010CE58229F582E5833AF583E0225072
:10054E0006E92582F8E622BBFE06E92582F8E222BC
:0D055E00E58229F582E5833AF583E49322D6
:10056B00BB010689828A83F0225002F722BBFE016F
:02057B00F32269
:10057D00EF8DF0A4A8F0CF8CF0A428CE8DF0A42E92
:02058D00FE224C
:10058F00BC000BBE0029EF8DF084FFADF022E4CC50
:10059F00F875F008EF2FFFEE33FEEC33FCEE9DEC19
:1005AF00984005FCEE9DFE0FD5F0E9E4CEFD22ED5F
:1005BF00F8F5F0EE8420D21CFEADF075F008EF2FA9
:1005CF00FFED33FD4007985006D5F0F222C398FD9A
:0505DF000FD5F0EA2237
:0E05E400C3E49FFFE49EFEE49DFDE49CFC2228
:1005F200FAE6FB0808E6F925F0F618E6CA3AF6220A
:10060200D083D082F8E4937012740193700DA3A387
:1006120093F8740193F5828883E47374029368609B
:06062200EFA3A3A380DF9B
:1010C000EFB40A07740D1210CB740A309811A89966
:1010D000B8130CC2983098FDA899C298B811F63090
:0710E00099FDC299F5992268
:00000001FF
