:030000000205797D
:0C057900787FE4F6D8FD7581320205C0E1
:10089000C100C101C102012C0001272D0126050163
:0808A000232D012205012100B6
:0B0A2F001209E01209CB1203D280FB79
:1003D20012084F2000030204AEC2007F4312092814
:1003E2007524008F25AE247C007D641202737D3358
:1003F2001202858E248F25E52275F00AA4FFD3E52B
:10040200259FE52495F04018E52375F00AA4FFC363
:10041200E5259FE52495F05007C2021206D8800216
:10042200D202200266D3E5329414E53194005004DE
:100432007F338059C3E53294F4E531940140047F5F
:10044200FF804AAE31AF327C007D06120273EF2488
:10045200DFFDEE34FFFCE41201B98F2B8E2A8D29C9
:100462008C28E4FFFE7D4C7C42AB2BAA2AA929A84A
:100472002812000EE4FBFA79C878421201178F2B7A
:100482008E2A8D298C281201F28002E4FF1209B60D
:100492001207CAE52C7003020673E52C640170038F
:0D04A2000204AFE52C6402700312080D2265
:1002E800E52CFD7C00700CEF643460030203D175CB
:1002F8002C0122ED64014C700EEF6434600302039C
:10030800D1752C02C20122ED64024C60030203D1B4
:10031800BF3408F52C852723852622200157BF33B3
:1003280003D20122BF322474052527F527FD7C005E
:10033800D394327480948040028027C3ED9405ECF6
:100348006480948040030203D18026EF6431707981
:1003580074FB2527F527FD7C00D3943274809480A4
:10036800400475270522C3ED9405EC648094805001
:100378005875273222300151BF3303C20122BF32E0
:100388002174052526F526FD7C00D39432748094CB
:100398008040028022C3ED9405EC6480948050294B
:1003A8008024BF312474FB2526F526FF7E00D394D4
:1003B8003274809480400475260522C3EF9405EEBC
:0A03C80064809480500375263222F1
:03000B00020736B3
:10073600C0E0C0F0C083C082C0D075D000C000C089
:0D07460001C002C003C004C005C006C0070A
:100753001207861206050521C3E52194C874809407
:08076300804005752100D20061
:10076B00D007D006D005D004D003D002D001D000E2
:0B077B00D0D0D082D083D0F0D0E0328C
:040A440031323334E4
:1008A800041101010101040801010101010C000406
:0508B8000DFFFFFFFF32
:10084F00E4F51FF51FC3E51F9404748094805030A6
:10085F007411251FF8E6FF7408251FF8E6FE6F6078
:10086F001BEE600AE51F900A4493FF1202E8741111
:10087F00251FF8E6FF7408251FF8A607051F80C57A
:01088F002246
:10060500E50C14601814602314602E24037036E57D
:100615000D25E0FFA2B0E4334FF50D8028E50E254A
:10062500E0FFA2B1E4334FF50E801AE50F25E0FF98
:10063500A2B2E4334FF50F800CE51025E0FFA2B31D
:10064500E4334FF510740D250CF8E6540FFF7E00CA
:1006550070097411250CF8E4F6800DEF640F4E70E7
:0D066500077411250CF87601050C530C03E9
:010672002265
:0A0A3A00C0F9A4B0999282F88090F0
:0F08BD00C1030816FFFFFFFFFFFFFFFF0115003C
:100786007F07120A167580FFE4FF120A16E4F58049
:100796007F06120A16AF15A8077401088002C33334
:1007A600D8FCF580E4FF120A167580FF7F07120A4F
:1007B6001674162515F8E6F580E4FF120A160515D7
:0307C600531507C1
:0107C900220D
:100673007516C17519FF751AFFAE24AF257C007D71
:10068300641202857C007D0A120285743A2DF5827C
:10069300740A3CF583E493547FF51BAE24AF257CA9
:1006A300007D0A1202857C007D0A120285743A2DB0
:1006B300F582740A3CF583E493F51CAE24AF257CE4
:1006C300007D0A120285743A2DF582740A3CF58383
:0506D300E493F51D2277
:1004AF003002030205637516C77519FF751AFFC36E
:1004BF00E5329464E5319400402DD3E53294E7E5BD
:1004CF003194035022AE31AF327C007D641202852D
:1004DF007C007D0A120285743A2DF582740A3CF570
:1004EF0083E493F51B8019C3E532940AE531940038
:1004FF004030D3E5329463E53194005025751BFFEE
:10050F00AE31AF327C007D0A1202857C007D0A126B
:10051F000285743A2DF582740A3CF583E493F51C39
:10052F008018C3E53194004040D3E5329409E5319A
:10053F0094005035751BFF751CFFAE31AF327C0038
:10054F007D0A120285743A2DF582740A3CF583E414
:10055F0093F51D223002127516C77519FF751AFF14
:0A056F00751B88751C88751D882215
:10080D0075168CE52775F00A8475F00A84E5F0906D
:10081D000A3A93547FF519E52775F00A84E5F093AC
:10082D00F51A751BFFE52675F00A8475F00A84E547
:10083D00F093547FF51CE52675F00A84E5F093F5E9
:02084D001D226A
:1007CA007580FF7F04120A16AF2C7E00EF7008C2F4
:1007DA0080D281D282801AEF64014E7008D280C220
:1007EA0081D282800CEF64024E7006D280D281C21E
:1007FA0082200208A2039287B2038002D287E4FF12
:03080A00020A16C9
:04096A00D2A07F0593
:10096E00000000000000000000000000000000AECB
:06097E00071FEE70EB22E2
:0F0A0700D2A112096AC2A17F0512096EC2A022F4
:0C0A2300C2A112096AD2A17F0502096E6F
:0208CD00AD0775
:1008CF00E4FCECC39408748094805024C2A07F058C
:1008DF0012096EED30E704D2A18002C2A17F05128A
:1008EF00096ED2A0ED25E0FD7F0512096E0C80D2B6
:0208FF00C2A095
:0109010022D3
:10090200E4FCECC3940874809480501712096AEDD9
:1009120025E0FD30A103430501C2A07F0512096E47
:050922000C80DFAF05B1
:0109270022AD
:0B094D001208CD120958AF031208CDAC
:1009580012096AA2A1E433FDC2A07F0512096EAF95
:010968000589
:01096900226B
:10099E00C2A0EF24FF92A17F0512096E12096AC24E
:0809AE00A0D2A17F0502096E31
:02092800AB071B
:10092A00120A077F9012094D120A077F911208CD09
:10093A001209581209028F1E7F0112099E120A23F8
:02094A00AF1EDE
:01094C002288
:1009B600AB07120A077F901208CD1209587F43121F
:0509C600094D020A23A7
:0600030000007F24DFFE77
:0100090022D4
:10098400E4FEEEC3940874809480500DD29012005B
:0909940003C2901200030E80E979
:01099D002237
:1006D8001209F4120984D28E208F032091FAC28E57
:1006E800208F42AF8DEFFEAD8BEDFFAC06E412011B
:1006F800B98F308E2F8D2E8C2DE4FFFE7D887C41A6
:10070800AB30AA2FA92EA82D12000EE4FBFA797A95
:1007180078441201178F308E2F8D2E8C2D1201F2F6
:0D0728008E318F3222C28F7531037532E79A
:0107350022A1
:0D0A160053A01FEF5407C43354E042A02248
:1009E0007F04120A167580FF7F05120A16E4F5804F
:0409F000FF020A16E2
:1009CB00438E805389F0758A20758CD1C28DD28C61
:0509DB00D2A9D2AF22F9
:1009F400538EBF53890F438910E4F58BF58DC28F55
:030A0400D28E226D
:10000E00EC4D6011E8497017ED33EC3304600DE4EC
:10001E00FCFFFEFD22E933E8330470F802025E12A3
:10002E00022958046009E4CC2481500628500902A4
:10003E000268284003020265C0E0EB4A7044B980B2
:10004E0006D0E0FB020254EF4E701CBD8008EBFFA1
:10005E00EAFEE9FD80EBE98DF0A4FEE5F00200F783
:10006E00E9CDF9EAFEEBFFEF89F0A4FCE5F0CE89CD
:10007E00F0A42EFFE435F0CD89F0A42DFEE435F08A
:10008E008067EF4E7005BD80D780C3EF8BF0A4ACB8
:10009E00F0EE8BF0A42CFCE435F0F8EF8AF0A42CF3
:1000AE00E5F038FCE433CB8DF0A42CFCE5F03BF806
:1000BE00EE8AF0A42CFCE5F038F8E433CF89F0A4F6
:1000CE002CFCE5F038CF3400CE89F0A42FFFE5F0FC
:1000DE003EFEE433C98DF0A42EFEE5F039CD8AF054
:1000EE00A42FFFE5F03EFEE43DFD33D0E0FB5007CC
:1000FE000BBB000F020268EC2CFCEF33FFEE33FE5D
:06010E00ED33FD0202408A
:10011400020268EC5D046005E85904700302025EA3
:10012400120229580460F6EC4860F2EC7004FDFEFB
:10013400FF22C860DB2481C85009C39860025006BE
:100144000202659850CAF582E9294B4A7005AB82D0
:1001540002025475F0007C1A7880C3EF9BEE9AED8E
:1001640099400DC3EF9BFFEE9AFEED99FDE842F036
:10017400DC23ACF0D0E0FFD0E0FED0E0FDAB822089
:10018400E7101BEB60BAEC2CFCEF33FFEE33FEED13
:1001940033FD020240E803F830E705C0F075F000D3
:1001A400EF2FFFEE33FEED33FD40B830E7C280AAF7
:1001B40075F020800E75F010800575F0087D007EC6
:1001C400007F003392D530D5031202DAEC334010AD
:1001D400EF33FFEE33FEED33FDEC33FCD5F0ED22CF
:0E01E400E5F0247EA2D513CC92E7CDCEFF220B
:1001F200EDD2E7CD33EC3392D524814006E4FFFE05
:10020200FDFC22FCE4CFCECDCC24E0501174FF8063
:10021200EDC3CC13CCCD13CDCE13CECF13CF047000
:07022200F030D5DE0202DA24
:10022900E9D2E7C933E833F892D5EDD2E7CD33EC1B
:0702390033FC5002B2D52294
:10024000EC30E7100FBF000C0EBE00080DBD00041F
:100250000BEB6014A2D5EB13FCED92E7FD2274FFCB
:10026000FCFDFEFF22E480F8A2D574FF13FC7D8024
:03027000E480EF38
:10058500020A2FE493A3F8E493A34003F68001F253
:1005950008DFF48029E493A3F85407240CC8C33377
:1005A500C4540F4420C8834004F456800146F6DF46
:1005B500E4800B0102040810204080900890E47E3E
:1005C500019360BCA3FF543F30E509541FFEE4933B
:1005D500A360010ECF54C025E060A840B8E493A302
:1005E500FAE493A3F8E493A3C8C582C8CAC583CA2D
:1005F500F0A3C8C582C8CAC583CADFE9DEE780BEE5
:0108CC00002B
:10027300EF8DF0A4A8F0CF8CF0A428CE8DF0A42E9F
:02028300FE2259
:10028500BC000BBE0029EF8DF084FFADF022E4CC5D
:10029500F875F008EF2FFFEE33FEEC33FCEE9DEC26
:1002A500984005FCEE9DFE0FD5F0E9E4CEFD22ED6C
:1002B500F8F5F0EE8420D21CFEADF075F008EF2FB6
:1002C500FFED33FD4007985006D5F0F222C398FDA7
:0502D5000FD5F0EA2244
:0E02DA00C3E49FFFE49EFEE49DFDE49CFC2235
:00000001FF
