:03000000020F6B81
:0C0F6B00787FE4F6D8FD758156020FB2C5
:1013F3004F766572210D0A00433A252E31660D0A98
:1014030000443A252E326670706D0D0A004F7065E8
:041413006E0D0A0050
:1010FA00C109C10AC10DC10BC18C54000000000016
:10110A0000000000000000000000000000000000D5
:0C111A000001080002090000020B0000A8
:1014C70012143A1215381215051214DDD2AF121084
:0614D7007B120C3280F8CC
:100C3200300955C2097F431212E38F0D7E007C00FA
:100C42007D6412057DAC06AD07EC1202C9E4FBFA25
:100C5200794C78421202278F118E108D0F8C0EE480
:100C6200FBFAF9784012011E8F118E108D0F8C0E37
:100C72001203028E148F151211D5200D0512116C5C
:100C82008003120EB4121459300A0CC20A120FF762
:100C92008E128F13121538300B14C20B7BFF7A138E
:100CA20079F31213CE9000147446F0E4F51F90000D
:100CB20014E0643170197525FF7526137527FBAC96
:100CC20012AD131202C9E4FBFA79207841801F9019
:100CD2000014E0643270397525FF752614752704F7
:100CE200AC14AD151202C9E4FBFA79C878421202BB
:100CF200278F2B8E2A8D298C287B017A007900126E
:100D0200081F7B017A0079001213CE900014801321
:100D1200900014E0FF64326010EF6431600BEF6406
:0A0D22004F60067446F0E4F51F224E
:1012B0008F24200C1BE524B43109200D03D20D220C
:1012C000C20D22E524B4341AD20C1214F202143ADC
:1012D000E524B4340DC20C9000147443F0E4F51FFF
:0312E000C20D221A
:10145900E4F5807F05121545C3E515942CE5149430
:0E146900015004D2848002C284E4FF021545C3
:03000B00020DFCE7
:100DFC00C0E0C0F0C083C082C0D075D000C000C0BD
:0D0E0C0001C002C003C004C005C006C0073D
:100E1900121237120D2C200C680508050AE50A7014
:100E2900020509C3E5089464748094804005750837
:100E390000D209C3E50A9420E5099403400875091D
:100E490000750A00D20A78147C007D017BFF7A14B0
:100E590079101207A6EF3395E04F700A050CE50CDF
:100E6900700A050B8006750B00750C00C3E50C9420
:100E7900B8E50B940B4019750B00750C00D20B806B
:100E89000F750800750900750A00750B00750C00CF
:100E9900D007D006D005D004D003D002D001D000AD
:0B0EA900D0D0D082D083D0F0D0E03257
:0800030031323341343536423D
:10112600084F0101010101010101083E0101010110
:10113600010101010146000847FFFFFFFFFFFFFF16
:01114600FFA9
:10107B00E4F522C3E5229402748094805070E4F569
:10108B0023C3E523940474809480505EE52225E00D
:10109B0025E0244F2523F8E6FFE52225E025E02473
:1010AB003E2523F8E6FE6F603DEE6020E52225E04D
:1010BB0025E02403F582E43400F583E5822523F54E
:1010CB0082E43583F583E493FF1212B0E52225E029
:1010DB0025E0244F2523F8E6FFE52225E025E02433
:0E10EB003E2523F8A607052380970522808561
:0110F90022D4
:100D2C00E54625E025E02447F8E625E0FFA2C4E4EB
:100D3C00334FFFE54625E025E02447F8A607E546B6
:100D4C0025E025E02448F8E625E0FFA2C2E4334F75
:100D5C00FFE54625E025E02448F8A607E54625E012
:100D6C0025E02449F8E625E0FFA2B5E4334FFFE582
:100D7C004625E025E02449F8A607E54625E025E0D0
:100D8C00244AF8E625E0FFA2B4E4334FFFE54625FC
:100D9C00E025E0244AF8A607E4FFEFC3940474802E
:100DAC0094805035E54625E025E024472FF8E6549D
:100DBC000FFD7C00700EE54625E025E0244F2FF852
:100DCC00E4F68012ED640F4C700CE54625E025E04E
:100DDC00244F2FF876010F80C10546534601E54696
:0F0DEC00146008047009D2B3C2B222D2B2C2B3EB
:010DFB0022D5
:101518004F70656E0D0A00C0F9A4B0999282F880E8
:011528009032
:0D1147000817FFFFFFFFFFFFFFFF0116006D
:101237007F071215457580FFE4FF121545E4F58019
:101247007F06121545AF16A8077401088002C3333D
:10125700D8FCF580E4FF1215457580FF7F0712154E
:101267004574172516F8E6F580E4FF1215450516AF
:0312770053160704
:01127A002251
:10116C007517C1901520E493F518751BFFAE12AFDF
:10117C00137C007D6412058F7C007D0A12058F7430
:10118C001F2DF58274153CF583E493F51CAE12AF5C
:10119C00137C007D0A12058F7C007D0A12058F746A
:1011AC001F2DF58274153CF583E493547FF51DAE29
:1011BC0012AF137C007D0A12058F741F2DF58274FB
:0911CC00153CF583E493F51E22A5
:100EB4007517C1901521E493F518C3E51594E8E579
:100EC400149403402DD3E515940FE5149427502270
:100ED400AE14AF157C037DE812058F7C007D0A12E9
:100EE400058F741F2DF58274153CF583E493F51B6F
:100EF4008019C3E5159464E51494004069D3E5159D
:100F040094E7E5149403505E751BFFAE14AF157C93
:100F1400007D6412058F7C007D0A12058F741F2DDD
:100F2400F58274153CF583E493547FF51CAE14AF3D
:100F3400157C007D0A12058F7C007D0A12058F74D2
:100F44001F2DF58274153CF583E493F51DAE14AFA3
:100F5400157C007D0A12058F741F2DF58274153CD3
:070F6400F583E493F51E2262
:1014F2007517FF7518FF751BFF751CFF751DFF75AE
:031502001EFF22A7
:1011D5007580FF7F04121545200C04C2808002D261
:1011E50080200D04C2818002D281300D04C282802C
:1011F50002D282C3E51394C8E5129400400BD3E5EF
:10120500139404E51294014004C2858002D28578C6
:10121500147C007D017BFF7A1579181207A6EF3340
:1012250095E04F7006C287F51F8002D287E4FF0262
:0212350015455D
:04149500D2A07F055D
:10149900000000000000000000000000000000AE95
:0614A900071FEE70EB22AC
:0F152900D2A1121495C2A17F05121499C2A0225B
:0C155200C2A1121495D2A17F05021499C9
:02127B00AD07BD
:10127D00E4FCECC39408748094805024C2A07F05D4
:10128D00121499ED30E704D2A18002C2A17F05129C
:10129D001499D2A0ED25E0FD7F051214990C80D292
:0212AD00C2A0DD
:0112AF00221C
:10138200E4FCECC39408748094805017121495ED19
:1013920025E0FD30A103430501C2A07F0512149987
:0513A2000C80DFAF0527
:0113A7002223
:03000E0012127B50
:10001100121495A2A1E433FDC2A07F05121499AF79
:0100210005D9
:0100220022BB
:1014AF00C2A0EF24FF92A17F05121499121495C2C6
:0814BF00A0D2A17F05021499DF
:0212E300AB0757
:1012E5001215297F9012000EAF0312000E12152958
:1012F5007F9112127B120011121382AD077F01122A
:0713050014AF121552AF05F1
:01130C0022BE
:041477007F057E006F
:10147B00EF1FAA0670011E4A600FE4FDEDC3940C2A
:09148B007480948050EA0D80F396
:011494002235
:02130D00A9072E
:10130F00E4FBEBC39408748094805012C294E913E9
:10131F009294121477D294E9C313F90B80E47F05EA
:05132F007E0002147BAA
:10141700E4FBEBC39408748094805014C294ECC32B
:1014270013FCD2943094034304801214770B80E2A8
:02143700AF0400
:011439002290
:10133400C200D2947F0C7E0012147BC2947F507E34
:101344000012147BD2947F0A7E0012147BA2949222
:0613540000121477A20054
:01135A002270
:0D1538001213347FCC12130D7F4402130DEB
:100FF7001213347FCC12130D7FBE12130D12141768
:10100700A9071214177522008F23E523FEE9FDEEC9
:10101700F522EDF523E52254F87054E522C4F8547F
:10102700F0C868F522E523C4540F48F523AE22FF24
:101037007C007D0A12057D8E228F23E9540FFCE484
:101047001202CEE4FBFA7920783F12011EC004C0D9
:1010570005C006C007AC22AD23E41202C9D003D0F5
:1010670002D001D00012002D1203028E228F23AE70
:0310770022AF2382
:01107A002253
:101154005400140000000000000000000000000023
:071164000000000000000084
:1014DD00759850438E01438E0475D7C775D6FE435C
:0514ED008E10D2AC22BC
:08155E008F993099FDC299221A
:1013CE008B228A238924AB22AA23A9241205256005
:1013DE00130524E5247002052314F9120525FF12C6
:0513EE00155E80E22203
:030023000213A81D
:1013A800C0E0C083C082C0D03098127414251FF5E5
:1013B80082E43400F583E599F0051FC298D0D0D0B7
:0613C80082D083D0E03268
:0D15450053A01FEF5407C43354E042A0220E
:10143A007580FF7F041215457580FFE4FF1215457C
:0F144A00E4F5807F05121545E4F580FF02154596
:10150500438E805389F0758A20758CD1C28DD28C1B
:03151500D2A92236
:1000260002036EE86480F8E933E83360110460F097
:10003600ED33EC337009E8FCE9FDEAFEEBFF220440
:1000460060DED3EB9FEA9EE99DE8C2E78CF0C2F73B
:1000560095F0400CE8CCF8E9CDF9EACEFAEBCFFB07
:1000660012033985D0F05804700320D5B3E8047024
:10007600075002B2D502037892D5EC0460F7E4CCBF
:10008600C0E0C398F8603B94186008400DD0E0FBD0
:10009600020350E4FBFAC9FC8028E830E406E4C910
:1000A600FBE4CAFCE830E305E4C9CACBFCE8540724
:1000B6006010F8C3E913F9EA13FAEB13FBEC13FC2F
:1000C600D8F130F52FC3E49CFCEF9BFFEE9AFEEDD2
:1000D60099FDD0E0FBEF4E4D4C701222DB0302037C
:1000E60075EC2CFCEF33FFEE33FEED33FDED30E720
:1000F600EB020350EF2BFFEE3AFEED39FDD0E0FBAD
:1001060050130BBB0003020378ED13FDEE13FEEF55
:0801160013FFEC13FC0203507F
:10011E00EC4D6011E8497017ED33EC3304600DE4DB
:10012E00FCFFFEFD22E933E8330470F802036E1281
:10013E00033958046009E4CC248150062850090282
:10014E000378284003020375C0E0EB4A7044B9807F
:10015E0006D0E0FB020364EF4E701CBD8008EBFF7F
:10016E00EAFEE9FD80EBE98DF0A4FEE5F002020760
:10017E00E9CDF9EAFEEBFFEF89F0A4FCE5F0CE89BC
:10018E00F0A42EFFE435F0CD89F0A42DFEE435F079
:10019E008067EF4E7005BD80D780C3EF8BF0A4ACA7
:1001AE00F0EE8BF0A42CFCE435F0F8EF8AF0A42CE2
:1001BE00E5F038FCE433CB8DF0A42CFCE5F03BF8F5
:1001CE00EE8AF0A42CFCE5F038F8E433CF89F0A4E5
:1001DE002CFCE5F038CF3400CE89F0A42FFFE5F0EB
:1001EE003EFEE433C98DF0A42EFEE5F039CD8AF043
:1001FE00A42FFFE5F03EFEE43DFD33D0E0FB5007BB
:10020E000BBB000F020378EC2CFCEF33FFEE33FE3A
:06021E00ED33FD02035068
:10022400020378EC5D046005E85904700302036E70
:10023400120339580460F6EC4860F2EC7004FDFED9
:10024400FF22C860DB2481C85009C39860025006AD
:100254000203759850CAF582E9294B4A7005AB82AE
:1002640002036475F0007C1A7880C3EF9BEE9AED6C
:1002740099400DC3EF9BFFEE9AFEED99FDE842F025
:10028400DC23ACF0D0E0FFD0E0FED0E0FDAB822078
:10029400E7101BEB60BAEC2CFCEF33FFEE33FEED02
:1002A40033FD020350E803F830E705C0F075F000B1
:1002B400EF2FFFEE33FEED33FD40B830E7C280AAE6
:1002C40075F020800E75F010800575F0087D007EB5
:1002D400007F003392D530D5031205E4EC3340108F
:1002E400EF33FFEE33FEED33FDEC33FCD5F0ED22BE
:0E02F400E5F0247EA2D513CC92E7CDCEFF22FA
:10030200EDD2E7CD33EC3392D524814006E4FFFEF3
:10031200FDFC22FCE4CFCECDCC24E0501174FF8052
:10032200EDC3CC13CCCD13CDCE13CECF13CF0470EF
:07033200F030D5DE0205E406
:1007C300E5392425F8E60539227822300702782511
:1007D300E475F0011205F20205252000EB7F2ED20D
:1007E300008018EF540F2490D43440D4FF30040B0E
:1007F300EF24BFB41A0050032461FFE53A600215E9
:100803003A053DE53D7002053C30070D7822E4755D
:10081300F0011205F2EF02056B02135B7403D207BA
:100823008003E4C207F5398B228A238924E4F53A4D
:10083300F53CF53DE53A60077F201207FE80F5752C
:100843003BFFC201C200C202C203C205C206C20804
:100853001207CCFF700D3007057F0012080FAF3D64
:10086300AE3C22B4255FC2D5C2041207CCFF24D00C
:10087300B40A00501A75F00A783A30D50508B6FF65
:100883000106C6A426F620D5047002D20380D9241B
:10089300CFB41A00EF5004C2E5D204020AFCD2011D
:1008A30080C6D20080C0D20280BCD2D580BAD20525
:1008B30080B47F201207FE2002077401B53A00407E
:1008C300F11207C3FF1207FE020837D208D20680CF
:1008D300951207C3FB1207C3FA1207C3F94A4B70F9
:1008E3000679F37A0B7BFF20022EE53A602A7E001D
:1008F3008E8275830012053E60060EEE653B70F036
:10090300C2D5EBC0E0EAC0E0E9C0E0EE120B5CD078
:10091300E0F9D0E0FAD0E0FB120525FF60AAEBC0B6
:10092300E0EAC0E0E9C0E01207FED0E02401F9D01C
:10093300E03400FAD0E0FBE53B0460DCD53BD98032
:1009430087D20280A2120B3F60F7E53B70010412CD
:100953000383A93B600DE53B600914F53B120BE6ED
:10096300EF60F3EA30E702F404C3995077EAF42521
:100973003B0430E701E404F53B800D120B3F60C1FB
:10098300EA053B253B120383EA7838F630E701E4B6
:10099300253B04D53B0420050114120B5CE4C0E0A5
:1009A300120BE67838E6601320E70714F61207E621
:1009B300802204F6D0E014C0E07F001207E6E53B96
:1009C30060071207DD153B800B3005031207DDD0EE
:1009D300E0020837D0E00480C5120B3F60A0E53B7E
:1009E300041203837838EAF6E53B2005026001042C
:0509F3002404120B5C5E
:1009F80074FF04C0E0120BE61207E6E53B2005028F
:100A080060031207DDD0E0B53BE87F451207F078B8
:100A180038E67F2B30E7047F2DF404C0E01207FE90
:100A2800D0E075F00A84C0F01207E7D0E01207E7BB
:100A3800020837791080027908C206C2088008D2F5
:100A4800D5790A8004790AC2D5E53B047002F53BE2
:100A5800E4FAFDFEFF1207C3FC7B0820011312070E
:100A6800C3FD7B1030000A1207C3FE1207C3FF7BC9
:100A780020EC3382D592D55013C3E43000069FFF93
:100A8800E49EFEE42001039DFDE49CFCE4CBF8C257
:100A980001EC700CCFCECDCCE824F8F870F38017B9
:100AA800C3EF33FFEE33FEED33FDEC33FCEB33FBEA
:100AB800994002FB0FD8E9EB300105F8D0E0C448B3
:100AC800B201C0E00AEC4D4E4F78207B0070C2EABC
:100AD800B53B0040BCC0E0120B5ED0F0D0E0200176
:100AE80004C4C0E0C4B201C0F01207E7D0F0D5F0EA
:100AF800EB02083712060208D4530A3B5808A54CE3
:100B080008A1420A3F4F0A47440A474908BA430A1C
:100B18004D55097E4609DC450948470C135008A97C
:100B28002D08AD2E08D02B08B12308CE200BFC2AA7
:100B3800086948000008C8E53BB4FF03753B061286
:100B480007C3FC1207C3FD1207C3FE1207C3FF78D1
:100B5800310203B2790AA2D5200314300509B9106D
:100B6800020404B9080104A2D52006025001042099
:100B780002689202B53A005034C0E07F2030031971
:100B88007F30A20272067205500F120BB5C202C264
:100B980006C205C2087F30800F300503E9C0E012A5
:100BA80007FE300503D0E0F9D0E0B53ACC300517A0
:100BB8007F30B9100C1207FE7F583004077F788009
:100BC80003B908031207FE3002057F2D0207FE7FD6
:100BD800202008F87F2B2006F322920280CF7F0086
:100BE800B4070050052431F8E6FF22286E756C6CB6
:100BF8002900D2011207C33001F8C201783A30D572
:100C08000108F60208692D504349581207C3240306
:100C1800B405004001E4900C0E931207EF743A12E9
:0A0C280007EFD203753A04020A3BFD
:10033900E9D2E7C933E833F892D5EDD2E7CD33EC0A
:0703490033FC5002B2D52283
:10035000EC30E7100FBF000C0EBE00080DBD00040E
:100360000BEB6014A2D5EB13FCED92E7FD2274FFBA
:10037000FCFDFEFF22E480F8A2D574FF13FC7D8013
:03038000E480EF27
:10038300F920E72824F950037907E4F42402FB1841
:10039300DBFDE624FB5014E9600DE4F618E604F6F1
:0F03A300B40A08E4F6D9F57401F60A22C2D5228D
:1003B200ED33EC3392D5FA602AB4FF33EDC2E77B1A
:1003C200FF60067A0379D7E4227A0379E020D50424
:1003D2007A0379DB224E614E002B494E46002D49AD
:1003E2004E4600E47A08F608DAFC7B00740722E83D
:1003F200C0E0ECC0E0EDC0E0EEC0E0EFC0E0EA75C6
:10040200F010A4CAABF075F04DA42BFBE435F0FC60
:10041200EA2410FAEB34C5FBEC34D9FCEDC2E7FF59
:1004220075F056A4F42411C5F0F434C58FF0A42A53
:10043200E5F03BE43CF620E7141204E5D0E0FFD0FF
:10044200E0FED0E0FDD0E0FC1202278014F404129A
:1004520004E5D0E0FFD0E0FED0E0FDD0E0FC1201E8
:100462001ED0E0F8E6FAEDD2E7CD33EC332482FB7E
:10047200E4C3CF33CFCE33CECD33CD33DBF37B07E3
:1004820075F00A846004F6081B0AE5F0F6088FF09E
:10049200740AA4FFACF08EF0740AA42CFEACF050E7
:1004A200010C8DF0740AA42CFDE435F0F608DBDEB5
:0304B200740722AA
:1004B5003F8000004120000042C80000447A00004F
:1004C500461C400047C35000497424004B189680D1
:1004D5004CBEBC205A0E1BCA6753C21C749DC5AEC8
:1004E500FB60065407601C2323120513EB54386088
:1004F500091204FF12050E12011EECF8EDF9EEFAD1
:10050500EFCB22EB12050E80F1543803241C900426
:10051500B5FE93FC0EEE93FD0EEE930ECE93FF22E9
:100F77000214C7E493A3F8E493A34003F68001F2B5
:100F870008DFF48029E493A3F85407240CC8C3337B
:100F9700C4540F4420C8834004F456800146F6DF4A
:100FA700E4800B01020408102040809010FAE47ED0
:100FB700019360BCA3FF543F30E509541FFEE4933F
:100FC700A360010ECF54C025E060A840B8E493A306
:100FD700FAE493A3F8E493A3C8C582C8CAC583CA31
:100FE700F0A3C8C582C8CAC583CADFE9DEE780BEE9
:01116B000083
:10052500BB010689828A83E0225002E722BBFE02D4
:09053500E32289828A83E4932207
:10053E00BB010CE58229F582E5833AF583E0225072
:10054E0006E92582F8E622BBFE06E92582F8E222BC
:0D055E00E58229F582E5833AF583E49322D6
:10056B00BB010689828A83F0225002F722BBFE016F
:02057B00F32269
:10057D00EF8DF0A4A8F0CF8CF0A428CE8DF0A42E92
:02058D00FE224C
:10058F00BC000BBE0029EF8DF084FFADF022E4CC50
:10059F00F875F008EF2FFFEE33FEEC33FCEE9DEC19
:1005AF00984005FCEE9DFE0FD5F0E9E4CEFD22ED5F
:1005BF00F8F5F0EE8420D21CFEADF075F008EF2FA9
:1005CF00FFED33FD4007985006D5F0F222C398FD9A
:0505DF000FD5F0EA2237
:0E05E400C3E49FFFE49EFEE49DFDE49CFC2228
:1005F200FAE6FB0808E6F925F0F618E6CA3AF6220A
:10060200D083D082F8E4937012740193700DA3A387
:1006120093F8740193F5828883E47374029368609B
:06062200EFA3A3A380DF9B
:10135B00EFB40A07740D121366740A309811A8992A
:10136B00B8130CC2983098FDA899C298B811F630F2
:07137B0099FDC299F59922CA
:10062800E3F5F009E208B5F06D606B80F3E3F5F0EF
:1006380009E608B5F060605E80F387F009E608B562
:10064800F054605280F487F009E208B5F04860463B
:1006580080F488828C8387F009E0A3B5F03860368F
:1006680080F488828C8387F009E493A3B5F027602F
:100678002580F388828C83E3F5F009E0A3B5F016B2
:10068800601480F388828C83E3F5F009E493A3B5C2
:10069800F004600280F2020753808580E7808E8034
:1006A800D2803C8015806C807E809B80B5808B805A
:1006B800A1804F8070803A02075F89828A83ECFAB2
:1006C800E493F5F0A3C8C582C8CCC583CCE493A352
:1006D800C8C582C8CCC583CCB5F070606E80E1898E
:1006E800828A83E493F5F0A3E208B5F05E605C804B
:1006F800F289828A83E0F5F0A3E608B5F04D604BF5
:1007080080F389828A83E0F5F0A3E208B5F03C60C3
:100718003A80F389828A83E493F5F0A3E608B5F07A
:100728002A602880F2805389828A83ECFAE493F560
:10073800F0A3C8C582C8CCC583CCE0A3C8C582C80D
:10074800CCC583CCB5F004600280E27FFFB5F0022F
:100758000F2240027F012289828A83ECFAE0F5F0B9
:10076800A3C8C582C8CCC583CCE0A3C8C582C8CC01
:10077800C583CCB5F0D560D380E389828A83ECFA4F
:10078800E0F5F0A3C8C582C8CCC583CCE493A3C860
:10079800C582C8CCC583CCB5F0B160AF80E288F023
:1007A800ED2402B4040050A3F582EB2402B4040043
:0B07B800509923234582239006A17373
:00000001FF
