:030000000200B04B
:0C00B000787FE4F6D8FD75812A0200F785
:10043A00C100C101C103C182011B1E011A140115A9
:05044A00000216000095
:0E05E1001205BE1205A91205EF12022280FBC0
:100222001203C030004CC2001202842003051203E4
:100232007D80063003031203FFD3E51F951BE51EE5
:10024200940040047FCC8027C3E51F951AE51E94D5
:1002520000400FD3E51F951BE51E940050047F99C3
:10026200800DC3E51F951AE51E940050057F6612A6
:10027200057A30010CC2011204A48E1E8F1F1205D2
:02028200EF2269
:10000E00EF6434702720030CD202D203851B1D85AA
:10001E001A1C8018300315C203851B19851A18E5A2
:10002E001BC3951A5006851D1B851C1A20023ABF4C
:10003E003303D20222BF3216E51BFDC374809480B7
:10004E00405FED9464748094805056051B22EF64DB
:10005E0031704EE51BFDC3748094804044ED946472
:10006E0074809480503B151B22300235BF3303C27F
:10007E000222BF3216E51AFDC3748094804022ED31
:10008E009464748094805019051A22BF3113C3747E
:10009E00809480400CE51A9464748094805002150C
:0200AE001A2214
:03000B000201B936
:1001B900C0E0C0F0C083C082C0D075D000C000C00C
:0D01C90001C002C003C004C005C006C0078D
:1001D60012033112013C0515C3E51594647480942D
:1001E600804005751500D2000517E5177002051643
:1001F600C39420E51694034008751600751700D2BF
:0102060001F6
:10020700D007D006D005D004D003D002D001D0004B
:0B021700D0D0D082D083D0F0D0E032F5
:04000300313233342F
:10044F00041101010101040801010101010C000463
:05045F000DFFFFFFFF8F
:1003C000E4F52AC3E52A94047480948050307411B3
:1003D000252AF8E6FF7408252AF8E6FE6F601BEE72
:1003E000600AE52A90000393FF12000E7411252A7B
:0E03F000F8E6FF7408252AF8A607052A80C53E
:0103FE0022DC
:10013C00E50C14601814602314602E24037036E54B
:10014C000D25E0FFA2B0E4334FF50D8028E50E2518
:10015C00E0FFA2B1E4334FF50E801AE50F25E0FF66
:10016C00A2B2E4334FF50F800CE51025E0FFA2B3EB
:10017C00E4334FF510E4FFEFC39404748094805083
:10018C0026740D250CF8E6540FFD7C0070097411D3
:10019C00250CF8E4F6800DED640F4C7007741125F6
:0C01AC000CF876010F80D0050C530C03FA
:0101B8002224
:0A061500C0F9A4B0999282F8809019
:0A0464000822FFFFFFFFFFFFFFFF6C
:100331007F061205FCE4F5807F071205FC7580FF3E
:10034100E4FF1205FCE4F5807F061205FCAF21A84D
:10035100077401088002C333D8FCF580E4FF12055D
:10036100FC7580FF7F071205FC74222521F8E6F554
:0B03710080E4FF1205FC05215321076A
:01037C00225E
:10037D007522C67525FF7526FFAE1EAF1F7C007D4D
:10038D000A1202DC7C007D0A1202DC74152DF58246
:10039D0074063CF583E493F528AE1EAF1F7C007DFB
:1003AD000A1202DC74152DF58274063CF583E49374
:0303BD00F52922FD
:1003FF0075228CE51B75F00A8475F00A84E5F09080
:10040F00061593F525E51B75F00A84E5F093F5269F
:10041F00E51A75F00A8475F00A84E5F093F528E57E
:0B042F001A75F00A84E5F093F529220D
:100284007580FF7F041205FCAF1B7E00D3E51F9F22
:10029400E51E9E4004C2808002D280AD1A7C00C359
:1002A400E51F9DE51E9C400DD3E51F9FE51E9E5056
:1002B40004C2818002D281C3E51F9DE51E9C5004C7
:1002C400C2828002D282E519C395185004C2838089
:0802D40002D283E4FF0205FCE5
:04056000D2A07F05A1
:10056400000000000000000000000000000000AED9
:06057400071FEE70EB22F0
:0F05D200D2A1120560C2A17F05120564C2A0224A
:0C060900C2A1120560D2A17F05020564A9
:02046F00AD07D7
:10047100E4FCECC39408748094805024C2A07F05EE
:10048100120564ED30E704D2A18002C2A17F0512FA
:100491000564D2A0ED25E0FD7F051205640C80D234
:0204A100C2A0F7
:0104A3002236
:0305940012046FDF
:10059700120560A2A1E433FDC2A07F05120564AF76
:0105A700054E
:0105A8002230
:10057A00AB071205D27F901205947F40120594AF03
:0A058A000312046F12059702060920
:040542007F057E00B3
:10054600EF1FAA0670011E4A600FE4FDEDC3940C6E
:090556007480948050EA0D80F3DA
:01055F002279
:0204D100A90779
:1004D300E4FBEBC39408748094805012C294E91334
:1004E3009294120542D294E9C313F90B80E47F0579
:0504F3007E0002054639
:10051F00E4FBEBC39408748094805014C294ECC332
:10052F0013FCD2943094034304801205420B80E2F3
:02053F00AF0407
:010541002297
:1004F800C204D2947F0C7E00120546C2947F507EBF
:1005080000120546D2947F0A7E00120546A29492F4
:0605180004120542A204DA
:01051E0022BA
:0D05EF001204F87FCC1204D17F440204D125
:1004A4001204F87FCC1204D17FBE1204D112051FAE
:1004B400A90712051FEFFEE9FFEE54F8700EEEC413
:0C04C400F854F0C868FEEFC4540F48FF65
:0104D0002209
:0D05FC0053A01FEF5407C43354E042A02267
:1005BE007F041205FC7580FF7F051205FCE4F580B3
:0405CE00FF0205FC27
:1005A900438E805389F0758A20758CD1C28DD28C87
:0505B900D2A9D2AF221F
:1000BC000205E1E493A3F8E493A34003F68001F274
:1000CC0008DFF48029E493A3F85407240CC8C33345
:1000DC00C4540F4420C8834004F456800146F6DF14
:1000EC00E4800B010204081020408090043AE47E66
:1000FC00019360BCA3FF543F30E509541FFEE49309
:10010C00A360010ECF54C025E060A840B8E493A3CF
:10011C00FAE493A3F8E493A3C8C582C8CAC583CAFA
:10012C00F0A3C8C582C8CAC583CADFE9DEE780BEB2
:01046E00008D
:1002DC00BC000BBE0029EF8DF084FFADF022E4CC06
:1002EC00F875F008EF2FFFEE33FEEC33FCEE9DECCF
:1002FC00984005FCEE9DFE0FD5F0E9E4CEFD22ED15
:10030C00F8F5F0EE8420D21CFEADF075F008EF2F5E
:10031C00FFED33FD4007985006D5F0F222C398FD4F
:05032C000FD5F0EA22EC
:00000001FF
