:03000000020230C9
:0C023000787FE4F6D8FD75815402027757
:1004F100C100C1010113000211012C011000010D05
:080501000001080002090000DE
:1006450012073D120728E4FF1207137511008F12D8
:10065500AE117C007D0A1201938E118F1212033B9D
:0206650080FB18
:10033B001202BC300075C2007F431206E9EF75F064
:10034B0064A4FFAEF07C007D331201A58E0B8F0CE5
:10035B00850B0E850C0F7F431206E9EF75F064A435
:10036B00FFAEF07C007D331201A58E0B8F0C850B3D
:10037B0014850C151205C6E5137005120433801491
:10038B00E513640170051204928009E51364027091
:10039B0003120621D3E50F9512E50E9511400CE5DE
:0C03AB00159512E5149511500205102262
:1000EF008F54AF137E00EF700FE554B42D07E4F576
:1000FF000D75130122050D22EF64014E7067E55453
:10010F00B42D17E4F50D751302AE11AF12FC7D0A75
:10011F001201FAAD07E4FF0206D2E554B44421E41C
:10012F00F50D74322512F512E43511F511D3E512E0
:10013F0094F4E511648094814049E4F511F512229D
:10014F00E554B4431DE4F50D74CE2512F51274FF7A
:10015F003511F511C3648094805028751101751203
:10016F00F422050D22E51364027018E554B42D0630
:10017F00E4F513F50D22E554B43906E4F510F50D49
:04018F0022050D2216
:03000B000203B736
:1003B700C0E0C0F0C083C082C0D075D000C000C00C
:0D03C70001C002C003C004C005C006C0078D
:1003D40012054D12000E0508C3E508946474809458
:1003E400804005750800D200C3E50C9512E50B9515
:1003F40011500A050AE50A700A0509800675090004
:10040400750A00C3E50A9488E50994134004D201EF
:040414008002C2019F
:10041800D007D006D005D004D003D002D001D00038
:0B042800D0D0D082D083D0F0D0E032E2
:0406A000D2A07F0560
:1006A400000000000000000000000000000000AE98
:0606B400071FEE70EB22AF
:0F076100D2A11206A0C2A17F051206A4C2A02237
:100684001205911206721205FBAD077F011206BA1C
:0C069400C2A11206A0D2A17F050206A49C
:02059100AD07B4
:10059300E4FCECC39408748094805024C2A07F05CB
:1005A3001206A4ED30E704D2A18002C2A17F051296
:1005B30006A4D2A0ED25E0FD7F051206A40C80D28F
:0205C300C2A0D4
:0105C5002213
:1005FB00E4FCECC394087480948050171206A0EDB1
:10060B0025E0FD30A103430501C2A07F051206A41E
:05061B000C80DFAF05BB
:0106200022B7
:0B066700120591120672AF03120591FC
:100672001206A0A2A1E433FDC2A07F051206A4AF18
:010682000572
:010683002254
:1006BA00C2A0EF24FF92A17F051206A41206A0C2CF
:0806CA00A0D2A17F050206A4E5
:0206E900AB075D
:1006EB001207617F901206671207617F91120684D1
:0206FB00AF0549
:0106FD0022DA
:1006FE00AB071207617F901205911206727F4312AB
:05070E000667020694DD
:02071300AB0732
:100715001207617FA01206671207617FA112068486
:02072500AF051E
:0107270022AF
:1006D200AB05AA071207617FA0120591120672AF3D
:0706E20002120667020694F4
:100751003132334134353642373839432B302D4429
:100509001042010101010101010101010101010182
:100519000101102101010101010101010101010193
:10052900010101011031FFFFFFFFFFFFFFFFFFFF87
:06053900FFFFFFFFFFFFC2
:1002BC00E4F552C3E5529404748094805070E4F5D4
:1002CC0053C3E553940474809480505EE55225E04A
:1002DC0025E024422553F8E6FFE55225E025E024ED
:1002EC00212553F8E6FE6F603DEE6020E55225E0D7
:1002FC0025E02451F582E43407F583E5822553F596
:10030C0082E43583F583E493FF1200EFE55225E098
:10031C0025E024422553F8E6FFE55225E025E024AC
:0E032C00212553F8A6070553809705528085BA
:01033A0022A0
:10000E00E54125E025E02431F8E625E0FFA2C4E431
:10001E00334FFFE54125E025E02431F8A607E54101
:10002E0025E025E02432F8E625E0FFA2C2E4334FB6
:10003E00FFE54125E025E02432F8A607E54125E05D
:10004E0025E02433F8E625E0FFA2B5E4334FFFE5C3
:10005E004125E025E02433F8A607E54125E025E01B
:10006E002434F8E625E0FFA2B4E4334FFFE5412542
:10007E00E025E02434F8A607E4FFEFC3940474806F
:10008E0094805035E54125E025E024312FF8E654E3
:10009E000FFD7C00700EE54125E025E024422FF88F
:1000AE00E4F68012ED640F4C700CE54125E025E07E
:1000BE0024422FF876010F80C10541534103E541DB
:1000CE0014600F14601114601324037013D2B3C2A2
:1000DE00B022D2B0C2B122D2B1C2B222D2B2C2B317
:0100EE0022EF
:0A077D00C0F9A4B0999282F88090B0
:0D053F000817FFFFFFFFFFFFFFFF01160081
:10054D007F071207707580FFE4FF120770E4F580D6
:10055D007F06120770AF16A8077401088002C33317
:10056D00D8FCF580E4FF1207707580FF7F07120736
:10057D007074172516F8E6F580E4FF12077005165E
:03058D00531607FB
:010590002248
:100433007517C1AE0BAF0C7C007D641201A57C0067
:100443007D0A1201A5747D2DF58274073CF583E4C2
:1004530093547FF51CAE0BAF0C7C007D0A1201A5F3
:100463007C007D0A1201A5747D2DF58274073CF58D
:1004730083E493F51DAE0BAF0C7C007D0A1201A53E
:0F048300747D2DF58274073CF583E493F51E22FA
:1004920075178CAE11AF127C007D641201FA7C00DC
:1004A2007D0A1201FA747D2DF58274073CF583E40E
:1004B20093547FF51CAE11AF127C007D0A1201FA33
:1004C2007C007D0A1201FA747D2DF58274073CF5D9
:1004D20083E493F51DAE11AF127C007D0A1201FA7E
:0F04E200747D2DF58274073CF583E493F51E229B
:100621007517C8751CFFE51075F00A8475F00A840A
:10063100E5F090077D93F51DE51075F00A84E5F06E
:0406410093F51E22ED
:1005C6007580FF7F04120770300104C2808002D25A
:1005D60080E510540164017004C2818002D281C397
:1005E600E50D9403748094804004C2828002D28216
:0505F600E4FF020770A4
:0D07700053A01FEF5407C43354E042A022F1
:10073D007F041207707580FF7F05120770E4F58046
:04074D00FF02077030
:10072800438E805389F0758ACD758CD4C28DD28C56
:05073800D2A9D2AF229E
:10023C00020645E493A3F8E493A34003F68001F28D
:10024C0008DFF48029E493A3F85407240CC8C333C3
:10025C00C4540F4420C8834004F456800146F6DF92
:10026C00E4800B01020408102040809004F1E47E2D
:10027C00019360BCA3FF543F30E509541FFEE49387
:10028C00A360010ECF54C025E060A840B8E493A34E
:10029C00FAE493A3F8E493A3C8C582C8CAC583CA79
:1002AC00F0A3C8C582C8CAC583CADFE9DEE780BE31
:01054C0000AE
:10019300EF8DF0A4A8F0CF8CF0A428CE8DF0A42E80
:0201A300FE223A
:1001A500BC000BBE0029EF8DF084FFADF022E4CC3E
:1001B500F875F008EF2FFFEE33FEEC33FCEE9DEC07
:1001C500984005FCEE9DFE0FD5F0E9E4CEFD22ED4D
:1001D500F8F5F0EE8420D21CFEADF075F008EF2F97
:1001E500FFED33FD4007985006D5F0F222C398FD88
:0501F5000FD5F0EA2225
:1001FA00C2D5EC30E709B2D5E4C39DFDE49CFCEE20
:10020A0030E715B2D5E4C39FFFE49EFE1201A5C3F1
:10021A00E49DFDE49CFC80031201A530D507C3E4EC
:06022A009FFFE49EFE228E
:00000001FF
