:030000000206668F
:0C066600787FE4F6D8FD7581530206ADE4
:10094A00C102C101C103C100010E19010F00020851
:0A095A000000020A0000020C000079
:0E0BA500120B60120B4B120BB31203E080FB1D
:1003E000120775300022C2001208E7E50F700512EF
:1003F00007F48014E50F64017005120A5B8009E5BB
:100400000F640270031208732001030204D5C201B5
:1004100020032DE50E75F064A4FFD3E5119FE510D0
:1004200095F0E4400CF515F514F513F512FF0204F0
:10043000D2F515F5147513FA7512437FFF0204D235
:100440002003030204D5D3E51194D0E510940740AE
:100450004FE51194A0E510940F5045AE10AF117CFC
:10046000007D0312036B7D1412037DEF2438FDEE33
:1004700034FFFCE41202B18F158E148D138C12E43C
:10048000FFFE7D4C7C42AB15AA14A913A8121201E1
:1004900006E4FBFA79C8784212020F1202EA8032AF
:1004A000D3E51194D0E5109407500FE4F515F51439
:1004B0007513C87512427F338018C3E51194A0E507
:1004C00010940F4010E4F515F5147513C875124318
:1004D0007FCC120AF330021D1206F2D3EF94A0EE85
:1004E000940F500CC3EE9400500280048E108F11B4
:0504F000C202120BB373
:0104F50022E4
:1009AB00BF370C200304D2038005300302C203E5DA
:1009BB000FFD7C007009EF642B7028750F0122ED81
:1009CB0064014C7013BF2B04750F0222BF3003055B
:1009DB000E22BF380E150E22ED64024C7005BF2B94
:0409EB0002F50F22E0
:03000B000205D714
:1005D700C0E0C0F0C083C082C0D075D000C000C0EA
:0D05E70001C002C003C004C005C006C0076B
:1005F4001209EF1204F60509E50970020508050B56
:10060400E50B7002050A050DE50D7002050CC3E546
:10061400099420E50894034008750800750900D280
:1006240002C3E50B94F4E50A94014008750A0075C9
:100634000B00D201C3E50D9464E50C9400400875E9
:070644000C00750D00D2004F
:10064B00D007D006D005D004D003D002D001D00003
:0B065B00D0D0D082D083D0F0D0E032AD
:100B86003132334134353642373839432B302D44F0
:100964001042010101010101010101010101010123
:100974000101102101010101010101010101010134
:10098400010101010131001032FFFFFFFFFFFFFFF2
:09099400FFFFFFFFFFFFFFFFFF63
:10077500E4F552C3E5529404748094805070E4F516
:1007850053C3E553940474809480505EE55225E08C
:1007950025E024422553F8E6FFE55225E025E0242F
:1007A500212553F8E6FE6F603DEE6020E55225E019
:1007B50025E02486F582E4340BF583E5822553F59F
:1007C50082E43583F583E493FF1209ABE55225E016
:1007D50025E024422553F8E6FFE55225E025E024EF
:0E07E500212553F8A6070553809705528085FD
:0107F30022E3
:1004F600E53125E025E02432F8E625E0FFA2C4E454
:10050600334FFFE53125E025E02432F8A607E53133
:1005160025E025E02433F8E625E0FFA2C2E4334FC8
:10052600FFE53125E025E02433F8A607E53125E08F
:1005360025E02434F8E625E0FFA2B5E4334FFFE5D5
:100546003125E025E02434F8A607E53125E025E04D
:100556002435F8E625E0FFA2B4E4334FFFE5312564
:10056600E025E02435F8A607E4FFEFC39404748081
:1005760094805035E53125E025E024322FF8E65405
:100586000FFD7C00700EE53125E025E024422FF8B2
:10059600E4F68012ED640F4C700CE53125E025E0A1
:1005A60024422FF876010F80C10531533103E5311E
:1005B60014600F14601114601324037013D2B3C2B5
:1005C600B022D2B0C2B122D2B1C2B222D2B2C2B32A
:0105D6002202
:0A0BD900C0F9A4B0999282F8809050
:0D099D000817FFFFFFFFFFFFFFFF0116001F
:1009EF00E4F5807F06120BC0AF16A80774010880CC
:1009FF0002C333D8FCF580E4FF120BC07580FF7F74
:100A0F0007120BC074172516F8E6F580E4FF120BDA
:060A1F00C0051653160786
:010A250022AE
:1007F4007517C6AE10AF117C037DE812037D7C0033
:100804007D0A12037D74D92DF582740B3CF583E4C3
:1008140093F51BAE10AF117C007D6412037D7C0048
:100824007D0A12037D74D92DF582740B3CF583E4A3
:1008340093547FF51CAE10AF117C007D0A12037D2A
:100844007C007D0A12037D74D92DF582740B3CF56E
:1008540083E493F51DAE10AF117C007D0A12037D75
:0F08640074D92DF582740B3CF583E493F51E22B5
:100A5B0075178C751BFF751CFFE50E75F00A8475F9
:100A6B00F00A84E5F0900BD993F51DE50E75F00AAD
:070A7B0084E5F093F51E2253
:10087300751788751BFFAF15AE14AD13AC121202BA
:10088300EAAB07AA067C007D6412037D7C007D0A27
:1008930012037D74D92DF582740B3CF583E49354D4
:1008A3007FF51C7C007D0AAF03AE0212037D7C0042
:1008B3007D0A12037D74D92DF582740B3CF583E414
:1008C30093F51DAF15AE14AD13AC121202EA7C0002
:1008D3007D0A12037D74D92DF582740B3CF583E4F4
:0408E30093F51E2249
:1008E7007580FF7F04200307120BC0C280800512AA
:1008F7000BC0D280E4FF120BC0E50F7F0470071214
:100907000BC0C2818005120BC0D281E4FF120BC05D
:10091700E50F64017F047007120BC0C282800512C5
:100927000BC0D282E4FF120BC0E50F64027F047094
:1009370007120BC0C2838005120BC0D283E4FF12DB
:030947000BC022C0
:040B13007F057E00DC
:100B1700EF1FAA0670011E4A600FE4FDEDC3940C97
:090B27007480948050EA0D80F303
:010B300022A2
:020A8200A907C2
:100A8400E4FBEBC39408748094805012C294E9137D
:100A94009294120B13D294E9C313F90B80E47F05EB
:050AA4007E00020B17AB
:100AD000E4FBEBC39408748094805014C294ECC37C
:100AE00013FCD294309403430480120B130B80E266
:020AF000AF0451
:010AF20022E1
:100AA900C204D2947F0C7E00120B17C2947F507E31
:100AB90000120B17D2947F0A7E00120B17A2949290
:060AC90004120B13A2044D
:010ACF002204
:0D0BB300120AA97FCC120A827F44020A8236
:1006F200120AA97FCC120A827FBE120A82120AD083
:10070200A907120AD0EF755200F553FEE9FDEEF586
:1007120052EDF553E55254F87054E552C4F854F0D2
:10072200C868F552E553C4540F48F553AE52FF7CE6
:10073200007D6412036B8E528F53E9540FFCE41256
:1007420002B6E4FBFA79C87840120106C004C0057B
:10075200C006C007AC52AD53E41202B1D003D002BE
:10076200D001D0001200151202EA8E528F53AE52FF
:02077200AF5383
:010774002262
:100AF3008F52120B967F90120A26120B747F4012AC
:100B03000A26120B74AF52120A26120B74020BCD73
:040B3100D2A07F05CA
:100B3500000000000000000000000000000000AE02
:060B4500071FEE70EB2219
:0F0B9600D2A1120B31C2A17F05120B35C2A022D2
:0C0BCD00C2A1120B31D2A17F05020B3532
:020A2600AD071A
:100A2800E4FCECC39408748094805024C2A07F0531
:100A3800120B35ED30E704D2A18002C2A17F051266
:100A48000B35D2A0ED25E0FD7F05120B350C80D2C9
:020A5800C2A03A
:010A5A002279
:100B7400120B31A2A1E433FDC2A07F05120B35AFE5
:010B8400056B
:010B8500224D
:0D0BC00053A01FEF5407C43354E042A0229D
:100B60007F04120BC07580FF7F05120BC0E4F58077
:040B7000FF020BC0B5
:100B4B00438E805389F0758A20758CD1C28DD28CDF
:050B5B00D2A9D2AF2277
:10000E00020356E86480F8E933E83360110460F0C7
:10001E00ED33EC337009E8FCE9FDEAFEEBFF220458
:10002E0060DED3EB9FEA9EE99DE8C2E78CF0C2F753
:10003E0095F0400CE8CCF8E9CDF9EACEFAEBCFFB1F
:10004E0012032185D0F05804700320D5B3E8047054
:10005E00075002B2D502036092D5EC0460F7E4CCEF
:10006E00C0E0C398F8603B94186008400DD0E0FBE8
:10007E00020338E4FBFAC9FC8028E830E406E4C940
:10008E00FBE4CAFCE830E305E4C9CACBFCE854073C
:10009E006010F8C3E913F9EA13FAEB13FBEC13FC47
:1000AE00D8F130F52FC3E49CFCEF9BFFEE9AFEEDEA
:1000BE0099FDD0E0FBEF4E4D4C701222DB03020394
:1000CE005DEC2CFCEF33FFEE33FEED33FDED30E750
:1000DE00EB020338EF2BFFEE3AFEED39FDD0E0FBDD
:1000EE0050130BBB0003020360ED13FDEE13FEEF86
:0800FE0013FFEC13FC020338B0
:10010600EC4D6011E8497017ED33EC3304600DE4F3
:10011600FCFFFEFD22E933E8330470F802035612B1
:10012600032158046009E4CC2481500628500902B2
:10013600036028400302035DC0E0EB4A7044B980C7
:1001460006D0E0FB02034CEF4E701CBD8008EBFFAF
:10015600EAFEE9FD80EBE98DF0A4FEE5F00201EF91
:10016600E9CDF9EAFEEBFFEF89F0A4FCE5F0CE89D4
:10017600F0A42EFFE435F0CD89F0A42DFEE435F091
:100186008067EF4E7005BD80D780C3EF8BF0A4ACBF
:10019600F0EE8BF0A42CFCE435F0F8EF8AF0A42CFA
:1001A600E5F038FCE433CB8DF0A42CFCE5F03BF80D
:1001B600EE8AF0A42CFCE5F038F8E433CF89F0A4FD
:1001C6002CFCE5F038CF3400CE89F0A42FFFE5F003
:1001D6003EFEE433C98DF0A42EFEE5F039CD8AF05B
:1001E600A42FFFE5F03EFEE43DFD33D0E0FB5007D3
:1001F6000BBB000F020360EC2CFCEF33FFEE33FE6B
:06020600ED33FD02033898
:10020C00020360EC5D046005E859047003020356B8
:10021C00120321580460F6EC4860F2EC7004FDFE09
:10022C00FF22C860DB2481C85009C39860025006C5
:10023C0002035D9850CAF582E9294B4A7005AB82DE
:10024C0002034C75F0007C1A7880C3EF9BEE9AED9C
:10025C0099400DC3EF9BFFEE9AFEED99FDE842F03D
:10026C00DC23ACF0D0E0FFD0E0FED0E0FDAB822090
:10027C00E7101BEB60BAEC2CFCEF33FFEE33FEED1A
:10028C0033FD020338E803F830E705C0F075F000E1
:10029C00EF2FFFEE33FEED33FD40B830E7C280AAFE
:1002AC0075F020800E75F010800575F0087D007ECD
:1002BC00007F003392D530D5031203D2EC334010BB
:1002CC00EF33FFEE33FEED33FDEC33FCD5F0ED22D6
:0E02DC00E5F0247EA2D513CC92E7CDCEFF2212
:1002EA00EDD2E7CD33EC3392D524814006E4FFFE0C
:1002FA00FDFC22FCE4CFCECDCC24E0501174FF806B
:10030A00EDC3CC13CCCD13CDCE13CECF13CF047007
:07031A00F030D5DE0203D232
:10032100E9D2E7C933E833F892D5EDD2E7CD33EC22
:0703310033FC5002B2D5229B
:10033800EC30E7100FBF000C0EBE00080DBD000426
:100348000BEB6014A2D5EB13FCED92E7FD2274FFD2
:10035800FCFDFEFF22E480F8A2D574FF13FC7D802B
:03036800E480EF3F
:10067200020BA5E493A3F8E493A34003F68001F2EE
:1006820008DFF48029E493A3F85407240CC8C33389
:10069200C4540F4420C8834004F456800146F6DF58
:1006A200E4800B010204081020408090094AE47E95
:1006B200019360BCA3FF543F30E509541FFEE4934D
:1006C200A360010ECF54C025E060A840B8E493A314
:1006D200FAE493A3F8E493A3C8C582C8CAC583CA3F
:1006E200F0A3C8C582C8CAC583CADFE9DEE780BEF7
:0109AA00004C
:10036B00EF8DF0A4A8F0CF8CF0A428CE8DF0A42EA6
:02037B00FE2260
:10037D00BC000BBE0029EF8DF084FFADF022E4CC64
:10038D00F875F008EF2FFFEE33FEEC33FCEE9DEC2D
:10039D00984005FCEE9DFE0FD5F0E9E4CEFD22ED73
:1003AD00F8F5F0EE8420D21CFEADF075F008EF2FBD
:1003BD00FFED33FD4007985006D5F0F222C398FDAE
:0503CD000FD5F0EA224B
:0E03D200C3E49FFFE49EFEE49DFDE49CFC223C
:00000001FF
