:03000000020BA848
:0C0BA800787FE4F6D8FD75815B020BEF4E
:10104A0044697374616E63653A2564636D0D0A00C1
:100D2A00C109C10A021E001E540020000000000072
:100D3A0000000000000000000000000000000001A8
:020D4A001D008A
:10103A0012101312102712000ED2AF120FDE80FB0D
:100FDE00120C34300914C209120EAD120F40200A41
:0B0FEE0003020D95300A03120DF922DA
:100CB300200A14BF2B04D20A8048EF6430704385A6
:100CC3005A1E855B1F803B300A38BF2B04C20A8043
:100CD30031BF2D0D740A251FF51FE4351EF51E8047
:100CE30021BF441E74F6251FF51F74FF351EF51E24
:100CF300D3E51F9400E51E648094805005E4F51E3F
:100D0300F51FBF38217527FF75281075294A855AA5
:100D13002A855B2B7B017A0079201206A87B017A56
:070D2300007920120F9B2252
:03000B00020E5D85
:100E5D00C0E0C0F0C083C082C0D075D000C000C05B
:0D0E6D0001C002C003C004C005C006C007DC
:100E7A00120EFC120ABB051DC3E51D94647480940E
:080E8A00804005751D00D2092E
:100E9200D007D006D005D004D003D002D001D000B4
:0B0EA200D0D0D082D083D0F0D0E0325E
:10105A003132334134353642373839432B302D4417
:100D4C0090100101010101010101010101010101E9
:100D5C0001019000010101010101010101010101E9
:100D6C00010101011040FFFFFFFFFFFFFFFFFFFF2D
:090D7C00FFFFFFFFFFFF01500221
:100C3400752202C3E5229404748094805070E4F514
:100C440023C3E523940474809480505EE52225E058
:100C540025E024102523F8E2FFE52225E025E02401
:100C6400002523F8E2FE6F603DEE6020E52225E0DA
:100C740025E0245AF582E43410F583E5822523F532
:100C840082E43583F583E493FF120CB3E52225E077
:100C940025E024102523F8E2FFE52225E025E024C1
:0E0CA400002523F8EFF20523809705228085B6
:010CB200221F
:100ABB00E55025E025E02440F8E625E0FFA2C4E45C
:100ACB00334FFFE55025E025E02440F8A607E5501D
:100ADB0025E025E02441F8E625E0FFA2C2E4334FF0
:100AEB00FFE55025E025E02441F8A607E55025E079
:100AFB0025E02442F8E625E0FFA2B5E4334FFFE5FD
:100B0B005025E025E02442F8A607E55025E025E036
:100B1B002443F8E625E0FFA2B4E4334FFFE550256C
:100B2B00E025E02443F8A607E4FFEFC394047480A8
:100B3B0094805036E55025E025E024402FF8E6540C
:100B4B000FFD7C00700EE55025E025E024102FF8FA
:100B5B00E4F28013ED640F4C700DE55025E025E0B9
:100B6B0024102FF87401F20F80C00550D3E5509478
:100B7B0003748094804003755002E55014600F1489
:100B8B00601114601324037013D2B3C2B022D2B01D
:0C0B9B00C2B122D2B1C2B222D2B2C2B3A7
:010BA700222B
:0A107700C0F9A4B0999282F88090AD
:0C0D8500C10B0852FFFFFFFFFFFFFFFF44
:100EFC007F0712106A7580FFE4FF12106AE4F58018
:100F0C007F0612106AAF51A8077401088002C33320
:100F1C00D8FCF580E4FF12106A7580FF7F07121071
:100F2C006A74522551F8E6F580E4FF12106A0551F7
:030F3C0053510707
:010F3F00228F
:100D95007552C1901078E493F553AE5AAF5B7C0061
:100DA5007D6412057D7C007D0A12057D74772DF525
:100DB5008274103CF583E493F557AE5AAF5B7C0023
:100DC5007D0A12057D7C007D0A12057D74772DF55F
:100DD5008274103CF583E493F558AE5AAF5B7C0002
:100DE5007D0A12057D74772DF58274103CF583E438
:040DF50093F55922F7
:100DF9007552C1901079E493F553AE1EAF1F7C0074
:100E09007D641205D27C007D0A1205D274772DF516
:100E19008274103CF583E493F557AE1EAF1F7C0036
:100E29007D0A1205D27C007D0A1205D274772DF550
:100E39008274103CF583E493F558AE1EAF1F7C0015
:100E49007D0A1205D274772DF58274103CF583E47E
:040E590093F5592292
:100F40007580FF7F0412106A200A04C2808002D2DA
:100F500080300A04C2818002D281D3E55B951FE50F
:100F60005A951E4008A20B9282B20B8002D282E4F4
:040F7000FF02106A02
:0610810000007F24DFFEE9
:011087002246
:100FF900E4FEEEC3940874809480500DD2901210D0
:0910090081C2901210810E80E9F1
:0110120022BB
:100EAD00E4F58DF58B120FF9D28E208F032091FA78
:100EBD00C28E208F31AF8DEFFEAD8BEDFFAC06E412
:100ECD001201318F258E248D238C227B967A4379C6
:100EDD008B783C1200268F258E248D238C221201B7
:0E0EED006A8E5A8F5B22C28F755A03755BE7BF
:010EFB0022D4
:030D9100011C0042
:0D106A0053A01FEF5407C43354E042A022EE
:101013007F0412106A7580FF7F0512106AE4F58061
:04102300FF02106A4E
:10102700438E805389F0758A20758CD1C28DD28CFE
:03103700D2A92219
:10000E00759850438E01438E0475D7C775D6FE433F
:05001E008E10D2AC229F
:080003008F993099FDC299228A
:100F9B008B248A258926AB24AA25A9261205256030
:100FAB00130526E5267002052514F9120525FF12F7
:050FBB00000380E222AA
:03002300020FC009
:100FC000C0E0C0D075D000C00030980B7408251C5C
:0E0FD000F8A699051CC298D000D0D0D0E0320F
:10002600EC4D6011E8497017ED33EC3304600DE4D4
:10003600FCFFFEFD22E933E8330470F80201D61214
:1000460001A158046009E4CC248150062850090215
:1000560001E02840030201DDC0E0EB4A7044B980AC
:1000660006D0E0FB0201CCEF4E701CBD8008EBFF12
:10007600EAFEE9FD80EBE98DF0A4FEE5F002010F52
:10008600E9CDF9EAFEEBFFEF89F0A4FCE5F0CE89B5
:10009600F0A42EFFE435F0CD89F0A42DFEE435F072
:1000A6008067EF4E7005BD80D780C3EF8BF0A4ACA0
:1000B600F0EE8BF0A42CFCE435F0F8EF8AF0A42CDB
:1000C600E5F038FCE433CB8DF0A42CFCE5F03BF8EE
:1000D600EE8AF0A42CFCE5F038F8E433CF89F0A4DE
:1000E6002CFCE5F038CF3400CE89F0A42FFFE5F0E4
:1000F6003EFEE433C98DF0A42EFEE5F039CD8AF03C
:10010600A42FFFE5F03EFEE43DFD33D0E0FB5007B3
:100116000BBB000F0201E0EC2CFCEF33FFEE33FECD
:06012600ED33FD0201B8FB
:10012C0075F020800E75F010800575F0087D007E4E
:10013C00007F003392D530D503120608EC33401003
:10014C00EF33FFEE33FEED33FDEC33FCD5F0ED2257
:0E015C00E5F0247EA2D513CC92E7CDCEFF2293
:10016A00EDD2E7CD33EC3392D524814006E4FFFE8D
:10017A00FDFC22FCE4CFCECDCC24E0501174FF80EC
:10018A00EDC3CC13CCCD13CDCE13CECF13CF047089
:07019A00F030D5DE0206087B
:10064C00E53B2427F8E6053B22782430070278277F
:10065C00E475F0011206160205252000EB7F2ED260
:10066C00008018EF540F2490D43440D4FF30040B86
:10067C00EF24BFB41A0050032461FFE53C6002155F
:10068C003C053FE53F7002053E30070D7824E475CC
:10069C00F001120616EF02056B020F747403D207F9
:1006AC008003E4C207F53B8B248A258926E4F53CBC
:1006BC00F53EF53FE53C60077F2012068780F57517
:1006CC003DFFC201C200C202C203C205C206C2087B
:1006DC00120655FF700D3007057F00120698AF3FCC
:1006EC00AE3E22B4255FC2D5C204120655FF24D0FB
:1006FC00B40A00501A75F00A783C30D50508B6FFDC
:10070C000106C6A426F620D5047002D20380D92493
:10071C00CFB41A00EF5004C2E5D204020985D2010D
:10072C0080C6D20080C0D20280BCD2D580BAD2059D
:10073C0080B47F201206872002077401B53C00406C
:10074C00F112064CFF1206870206C0D208D20680B0
:10075C009512064CFB12064CFA12064CF94A4B70D9
:10076C0006797C7A0A7BFF20022EE53C602A7E000B
:10077C008E8275830012053E60060EEE653D70F0AC
:10078C00C2D5EBC0E0EAC0E0E9C0E0EE1209E5D06A
:10079C00E0F9D0E0FAD0E0FB120525FF60AAEBC02F
:1007AC00E0EAC0E0E9C0E0120687D0E02401F9D00D
:1007BC00E03400FAD0E0FBE53D0460DCD53DD980A7
:1007CC0087D20280A21209C860F7E53D70010412BD
:1007DC0001EBA93D600DE53D600914F53D120A6F72
:1007EC00EF60F3EA30E702F404C3995077EAF4259A
:1007FC003D0430E701E404F53D800D1209C860C1E9
:10080C00EA053D253D1201EBEA783AF630E701E4C2
:10081C00253D04D53D04200501141209E5E4C0E092
:10082C00120A6F783AE6601320E70714F612066F87
:10083C00802204F6D0E014C0E07F0012066FE53D84
:10084C006007120666153D800B300503120666D054
:10085C00E00206C0D0E00480C51209C860A0E53DE6
:10086C00041201EB783AEAF6E53D2005026001043A
:05087C0024041209E54F
:1008810074FF04C0E0120A6F12066FE53D200502F5
:100891006003120666D0E0B53DE87F45120679781F
:1008A1003AE67F2B30E7047F2DF404C0E01206877F
:1008B100D0E075F00A84C0F0120670D0E012067024
:1008C1000206C0791080027908C206C2088008D2E7
:1008D100D5790A8004790AC2D5E53D047002F53D57
:1008E100E4FAFDFEFF12064CFC7B08200113120600
:1008F1004CFD7B1030000A12064CFE12064CFF7BA9
:1009010020EC3382D592D55013C3E43000069FFF0B
:10091100E49EFEE42001039DFDE49CFCE4CBF8C2CF
:1009210001EC700CCFCECDCCE824F8F870F3801731
:10093100C3EF33FFEE33FEED33FDEC33FCEB33FB62
:10094100994002FB0FD8E9EB300105F8D0E0C4482B
:10095100B201C0E00AEC4D4E4F78207B0070C2EA34
:10096100B53D0040BCC0E01209E7D0F0D0E0200165
:1009710004C4C0E0C4B201C0F0120670D0F0D5F0DA
:10098100EB0206C0120626075D5308C458072E4C19
:10099100072A4208C84F08D04408D04907434308F2
:1009A100D65508074608654507D1470A9C500732C6
:1009B1002D07362E07592B073A230757200A852A78
:1009C10006F24800000751E53DB4FF03753D0612EC
:1009D100064CFC12064CFD12064CFE12064CFF782A
:1009E1003302021A790AA2D5200314300509B9107D
:1009F100020404B9080104A2D52006025001042012
:100A010002689202B53C005034C0E07F20300319E7
:100A11007F30A20272067205500F120A3EC202C254
:100A210006C205C2087F30800F300503E9C0E0121D
:100A31000687300503D0E0F9D0E0B53CCC3005178E
:100A41007F30B9100C1206877F583004077F7880F9
:100A510003B908031206873002057F2D0206877F3E
:100A6100202008F87F2B2006F322920280CF7F00FE
:100A7100B4070050052433F8E6FF22286E756C6C2C
:100A81002900D20112064C3001F8C201783C30D560
:100A91000108F60206F22D5043495812064C240370
:100AA100B405004001E4900A9793120678743A1253
:0A0AB1000678D203753C040208C465
:1001A100E9D2E7C933E833F892D5EDD2E7CD33ECA4
:0701B10033FC5002B2D5221D
:1001B800EC30E7100FBF000C0EBE00080DBD0004A8
:1001C8000BEB6014A2D5EB13FCED92E7FD2274FF54
:1001D800FCFDFEFF22E480F8A2D574FF13FC7D80AD
:0301E800E480EFC1
:1001EB00F920E72824F950037907E4F42402FB18DB
:1001FB00DBFDE624FB5014E9600DE4F618E604F68B
:0F020B00B40A08E4F6D9F57401F60A22C2D52226
:10021A00ED33EC3392D5FA602AB4FF33EDC2E77BB3
:10022A00FF60067A02793FE4227A02794820D504EF
:10023A007A027943224E614E002B494E46002D49DF
:10024A004E4600E47A08F608DAFC7B00740722E8D6
:10025A00C0E0ECC0E0EDC0E0EEC0E0EFC0E0EA755F
:10026A00F010A4CAABF075F04DA42BFBE435F0FCFA
:10027A00EA2410FAEB34C5FBEC34D9FCEDC2E7FFF3
:10028A0075F056A4F42411C5F0F434C58FF0A42AED
:10029A00E5F03BE43CF620E7141204E5D0E0FFD099
:1002AA00E0FED0E0FDD0E0FC1204188014F4041241
:1002BA0004E5D0E0FFD0E0FED0E0FDD0E0FC120083
:1002CA0026D0E0F8E6FAEDD2E7CD33EC332482FB10
:1002DA00E4C3CF33CFCE33CECD33CD33DBF37B077D
:1002EA0075F00A846004F6081B0AE5F0F6088FF038
:1002FA00740AA4FFACF08EF0740AA42CFEACF05081
:10030A00010C8DF0740AA42CFDE435F0F608DBDE4E
:03031A0074072243
:10031D000201D6E86480F8E933E83360110460F037
:10032D00ED33EC337009E8FCE9FDEAFEEBFF220446
:10033D0060DED3EB9FEA9EE99DE8C2E78CF0C2F741
:10034D0095F0400CE8CCF8E9CDF9EACEFAEBCFFB0D
:10035D001201A185D0F05804700320D5B3E80470C4
:10036D00075002B2D50201E092D5EC0460F7E4CC5F
:10037D00C0E0C398F8603B94186008400DD0E0FBD6
:10038D000201B8E4FBFAC9FC8028E830E406E4C9B0
:10039D00FBE4CAFCE830E305E4C9CACBFCE854072A
:1003AD006010F8C3E913F9EA13FAEB13FBEC13FC35
:1003BD00D8F130F52FC3E49CFCEF9BFFEE9AFEEDD8
:1003CD0099FDD0E0FBEF4E4D4C701222DB03020184
:1003DD00DDEC2CFCEF33FFEE33FEED33FDED30E7BE
:1003ED00EB0201B8EF2BFFEE3AFEED39FDD0E0FB4D
:1003FD0050130BBB00030201E0ED13FDEE13FEEFF6
:08040D0013FFEC13FC0201B81F
:100415000201E0EC5D046005E8590470030201D6B1
:100425001201A1580460F6EC4860F2EC7004FDFE80
:10043500FF22C860DB2481C85009C39860025006BA
:100445000201DD9850CAF582E9294B4A7005AB8255
:100455000201CC75F0007C1A7880C3EF9BEE9AED13
:1004650099400DC3EF9BFFEE9AFEED99FDE842F032
:10047500DC23ACF0D0E0FFD0E0FED0E0FDAB822085
:10048500E7101BEB60BAEC2CFCEF33FFEE33FEED0F
:1004950033FD0201B8E803F830E705C0F075F00058
:1004A500EF2FFFEE33FEED33FD40B830E7C280AAF3
:1004B5003F8000004120000042C80000447A00004F
:1004C500461C400047C35000497424004B189680D1
:1004D5004CBEBC205A0E1BCA6753C21C749DC5AEC8
:1004E500FB60065407601C2323120513EB54386088
:1004F500091204FF12050E120026ECF8EDF9EEFACA
:10050500EFCB22EB12050E80F1543803241C900426
:10051500B5FE93FC0EEE93FD0EEE930ECE93FF22E9
:100BB40002103AE493A3F8E493A34003F68001F20D
:100BC40008DFF48029E493A3F85407240CC8C33342
:100BD400C4540F4420C8834004F456800146F6DF11
:100BE400E4800B0102040810204080900D2AE47E6A
:100BF400019360BCA3FF543F30E509541FFEE49306
:100C0400A360010ECF54C025E060A840B8E493A3CC
:100C1400FAE493A3F8E493A3C8C582C8CAC583CAF7
:100C2400F0A3C8C582C8CAC583CADFE9DEE780BEAF
:010D9400005E
:10052500BB010689828A83E0225002E722BBFE02D4
:09053500E32289828A83E4932207
:10053E00BB010CE58229F582E5833AF583E0225072
:10054E0006E92582F8E622BBFE06E92582F8E222BC
:0D055E00E58229F582E5833AF583E49322D6
:10056B00BB010689828A83F0225002F722BBFE016F
:02057B00F32269
:10057D00BC000BBE0029EF8DF084FFADF022E4CC62
:10058D00F875F008EF2FFFEE33FEEC33FCEE9DEC2B
:10059D00984005FCEE9DFE0FD5F0E9E4CEFD22ED71
:1005AD00F8F5F0EE8420D21CFEADF075F008EF2FBB
:1005BD00FFED33FD4007985006D5F0F222C398FDAC
:0505CD000FD5F0EA2249
:1005D200C2D5EC30E709B2D5E4C39DFDE49CFCEE44
:1005E20030E715B2D5E4C39FFFE49EFE12057DC33A
:1005F200E49DFDE49CFC800312057D30D507C3E435
:060602009FFFE49EFE22B2
:0E060800C3E49FFFE49EFEE49DFDE49CFC2203
:10061600FAE6FB0808E6F925F0F618E6CA3AF622E5
:10062600D083D082F8E4937012740193700DA3A363
:1006360093F8740193F5828883E473740293686077
:06064600EFA3A3A380DF77
:100F7400EFB40A07740D120F7F740A309811A89900
:100F8400B8130CC2983098FDA899C298B811F630DD
:070F940099FDC299F59922B5
:00000001FF
