:0300000002032FC9
:0C032F00787FE4F6D8FD75812C0203767F
:10060400C105C102C101C104C103C100021500003A
:0406140002170000C9
:1007C1001207761207AF12078AD2AF12043380FBE9
:100433001205C3300504C205D28C300236C2027BDA
:10044300007A0079191206FE120190200008200498
:100453000B12001E800630000312075D2003077590
:100463001D66AF1D800A30030A7F437E001206A675
:1004730012072330012FC2017F437E001206A675A7
:100483001B008F1CAE1B7C007D641202687D33123F
:10049300027A8E1B8F1C20000630040902051730D8
:0604A300000312075D22B8
:1006FE00C28CAF8CE48FF01202FA1202CFFEAD8ADA
:10070E00EDFFEEC313FEEF13FFEE8FF01202FAE4CD
:05071E00F58CF58A22B4
:10063B00200019200407BF340CD2048008300405B5
:10064B00BF3402C204BF310CD2008008300005BF9A
:10065B003102C200200306BF330BD2032230030545
:06066B00BF3302C20322AE
:03001B000203BB22
:1003BB00C0E0C0F0C083C082C0D075D000C000C008
:0D03CB0001C002C003C004C005C006C00789
:1003D80012057C1204A9E51645157002D20505160A
:1003E800E51670020515C394E8E5159403400875F1
:1003F8001500751600D2020518E51870020517C316
:1004080094F4E51794014008751700751800D20197
:10041800D007D006D005D004D003D002D001D00038
:0B042800D0D0D082D083D0F0D0E032E2
:040803003132333427
:10061800041101010101040801010101010C000498
:050628000DFFFFFFFFC4
:1005C300E4F52AF52AC3E52A940474809480503014
:1005D3007411252AF8E6FF7408252AF8E6FE6F60F1
:1005E3001BEE600AE52A90080393FF12063B741181
:1005F300252AF8E6FF7408252AF8A607052A80C5E8
:0106030022D4
:1004A900E50C14601814602314602E24037036E5DB
:1004B9000D25E0FFA2B0E4334FF50D8028E50E25A8
:1004C900E0FFA2B1E4334FF50E801AE50F25E0FFF6
:1004D900A2B2E4334FF50F800CE51025E0FFA2B37B
:1004E900E4334FF510740D250CF8E6540FFF7E0028
:1004F90070097411250CF8E4F6800DEF640F4E7045
:0D050900077411250CF87601050C530C0346
:0105160022C2
:04074300D2A07F05BC
:10074700000000000000000000000000000000AEF4
:06075700071FEE70EB220B
:0F07D100D2A1120743C2A17F05120747C2A0227F
:0C07ED00C2A1120743D2A17F05020747FA
:02067100AD07D3
:10067300E4FCECC39408748094805024C2A07F05EA
:10068300120747ED30E704D2A18002C2A17F051211
:100693000747D2A0ED25E0FD7F051207470C80D266
:0206A300C2A0F3
:0106A5002232
:1006D800E4FCECC39408748094805017120743ED2F
:1006E80025E0FD30A103430501C2A07F051207479D
:0506F8000C80DFAF05DE
:0106FD0022DA
:10079D00120743A2A1E433FDC2A07F05120747AFA4
:0107AD000546
:0107AE002228
:10000300C2A0EF24FF92A17F05120747120743C244
:08001300A0D2A17F05020747FE
:0406A6008E2A8F2BDE
:1006AA001207D17F9012067112079DAF2B120671A5
:1006BA0012079D1207D17F9112067112079D120629
:0D06CA00D88F2C7F011200031207EDAF2C1A
:0106D7002200
:100723008F2A1207D17F9012067112079D7F431201
:10073300067112079DAF2A12067112079D0207ED7B
:0A07F900C0F9A4B0999282F8809034
:0D062D000822FFFFFFFFFFFFFFFF0121007C
:10057C007F061207E0E4F5807F071207E07580FF25
:10058C007F061207E0AF21A8077401088002C3336D
:10059C00D8FCF580E4FF1207E07580FF7F07120797
:1005AC00E074222521F8E6F580E4FF1207E0E4F57B
:0605BC0080052153210718
:0105C2002216
:10001E0075228EC3E51A9464E5199400500C75256B
:10002E00FF7526FF7527FF020156C3E51A9464E596
:10003E001994004033E51A94E8E519940350297594
:10004E0025FF7526FFAE19AF1A7C007D6412027A69
:10005E007C007D0A12027A74F92DF58274073CF544
:10006E0083E493F527020156C3E51A94E8E5199443
:10007E00034050E51A9410E519942750467525FF54
:10008E00AE19AF1A7C037DE812027A7C007D0A124B
:10009E00027A74F92DF58274073CF583E493F52604
:1000AE00AE19AF1A7C007D6412027A7C007D0A12B2
:1000BE00027A74F92DF58274073CF583E493F527E3
:1000CE00020156C3E51A9410E51994275003020154
:1000DE008FAE19AF1AE4FCFD7BA07A867901F8D3B6
:1000EE00120319500302018FAE19AF1A7C277D102F
:1000FE0012027A7C007D0A12027A74F92DF582744E
:10010E00073CF583E493F525AE19AF1A7C037DE821
:10011E0012027A7C007D0A12027A74F92DF582742D
:10012E00073CF583E493F526AE19AF1A7C007D6487
:10013E0012027A7C007D0A12027A74F92DF582740D
:10014E00073CF583E493F527AE19AF1A7C007D0AC0
:10015E0012027A7C007D0A12027A74F92DF58274ED
:10016E00073CF583E493F528AE19AF1A7C007D0A9F
:10017E0012027A74F92DF58274073CF583E493F537
:02018E00292224
:100517007522C17525FF7526FFAE1BAF1C7C007DBC
:100527006412027A7C007D0A12027A74F92DF58230
:1005370074073CF583E493547FF527AE1BAF1C7C0F
:10054700007D0A12027A7C007D0A12027A74F92D64
:10055700F58274073CF583E493F528AE1BAF1C7C4A
:10056700007D0A12027A74F92DF58274073CF5832F
:05057700E493F52922C8
:10075D007522FF7523FF7524FF7525FF7526FF751F
:09076D0027FF7528FF7529FF2202
:100190007580FF20040E4380E07F041207E0D280C8
:1001A000C281800F3004114380E07F041207E0C257
:1001B00080D281E4FF1207E0C3E51C9496E51B940E
:1001C000004016E51C94FAE51B9400500C4380E0B7
:1001D0007F041207E0C2828021C3E51C945EE51B08
:1001E0009401400C4380E07F041207E0C282800A41
:1001F0004380E07F041207E0D282E4FF1207E0C3ED
:10020000E51A94E8E51994034019E51A9488E5196C
:100210009413500F4380E07F041207E0C283E4FF91
:100220001207E0C3E51A9410E5199427400C4380A7
:10023000E07F041207E0C283800A4380E07F04125B
:1002400007E0D283E4FF1207E020030C4380E07F45
:10025000041207E0D284800A4380E07F041207E0A2
:08026000C284E4FF1207E02252
:0D07E00053A01FEF5407C43354E042A02281
:100776007F041207E07580FF7F051207E0E4F5802D
:04078600FF0207E087
:1007AF00438E80438905E4F58AF58CC28DC28CC2D5
:0207BF00A9226D
:10078A00438E4053890F758B20758DD1C28FD28EBF
:03079A00D2AB22BD
:10033B000207C1E493A3F8E493A34003F68001F210
:10034B0008DFF48029E493A3F85407240CC8C333C3
:10035B00C4540F4420C8834004F456800146F6DF92
:10036B00E4800B0102040810204080900604E47E18
:10037B00019360BCA3FF543F30E509541FFEE49387
:10038B00A360010ECF54C025E060A840B8E493A34E
:10039B00FAE493A3F8E493A3C8C582C8CAC583CA79
:1003AB00F0A3C8C582C8CAC583CADFE9DEE780BE31
:01063A0000BF
:10026800EF8DF0A4A8F0CF8CF0A428CE8DF0A42EAA
:02027800FE2264
:10027A00BC000BBE0029EF8DF084FFADF022E4CC68
:10028A00F875F008EF2FFFEE33FEEC33FCEE9DEC31
:10029A00984005FCEE9DFE0FD5F0E9E4CEFD22ED77
:1002AA00F8F5F0EE8420D21CFEADF075F008EF2FC1
:1002BA00FFED33FD4007985006D5F0F222C398FDB2
:0502CA000FD5F0EA224F
:1002CF00BB010A89828A83E0F5F0A3E022500687FA
:1002DF00F009E71922BBFE07E3F5F009E3192289BC
:0B02EF00828A83E493F5F074019322EF
:1002FA00BB010A89828A83F0E5F0A3F0225006F74F
:0F030A0009A7F01922BBFE06F3E5F009F319224B
:10031900EB9FF5F0EA9E42F0E99D42F0EC6480C85B
:0603290064809845F022FB
:00000001FF
